{"contracts/utils/MockRandomNumberGenerator.sol":{"MockRandomNumberGenerator":{"abi":[{"inputs":[],"stateMutability":"nonpayable","type":"constructor"},{"anonymous":false,"inputs":[{"indexed":true,"internalType":"address","name":"previousOwner","type":"address"},{"indexed":true,"internalType":"address","name":"newOwner","type":"address"}],"name":"OwnershipTransferred","type":"event"},{"inputs":[],"name":"changeLatestLotteryId","outputs":[],"stateMutability":"nonpayable","type":"function"},{"inputs":[{"internalType":"uint256","name":"_seed","type":"uint256"}],"name":"getRandomNumber","outputs":[],"stateMutability":"nonpayable","type":"function"},{"inputs":[],"name":"kyotoSwapLottery","outputs":[{"internalType":"address","name":"","type":"address"}],"stateMutability":"view","type":"function"},{"inputs":[],"name":"latestLotteryId","outputs":[{"internalType":"uint256","name":"","type":"uint256"}],"stateMutability":"view","type":"function"},{"inputs":[],"name":"nextRandomResult","outputs":[{"internalType":"uint256","name":"","type":"uint256"}],"stateMutability":"view","type":"function"},{"inputs":[],"name":"owner","outputs":[{"internalType":"address","name":"","type":"address"}],"stateMutability":"view","type":"function"},{"inputs":[],"name":"randomResult","outputs":[{"internalType":"uint32","name":"","type":"uint32"}],"stateMutability":"view","type":"function"},{"inputs":[],"name":"renounceOwnership","outputs":[],"stateMutability":"nonpayable","type":"function"},{"inputs":[{"internalType":"address","name":"_kyotoSwapLottery","type":"address"}],"name":"setLotteryAddress","outputs":[],"stateMutability":"nonpayable","type":"function"},{"inputs":[{"internalType":"uint256","name":"_nextRandomResult","type":"uint256"}],"name":"setNextRandomResult","outputs":[],"stateMutability":"nonpayable","type":"function"},{"inputs":[{"internalType":"address","name":"newOwner","type":"address"}],"name":"transferOwnership","outputs":[],"stateMutability":"nonpayable","type":"function"},{"inputs":[],"name":"viewLatestLotteryId","outputs":[{"internalType":"uint256","name":"","type":"uint256"}],"stateMutability":"view","type":"function"},{"inputs":[],"name":"viewRandomResult","outputs":[{"internalType":"uint32","name":"","type":"uint32"}],"stateMutability":"view","type":"function"}],"evm":{"bytecode":{"linkReferences":{},"object":"608060405234801561001057600080fd5b5061001a3361001f565b61006f565b600080546001600160a01b038381166001600160a01b0319831681178455604051919092169283917f8be0079c531659141344cd1fd0a4f28419497f9722a3daafe3b4186f6b6457e09190a35050565b6106e28061007e6000396000f3fe608060405234801561001057600080fd5b50600436106100de5760003560e01c806380df99361161008c578063b37217a411610066578063b37217a4146101fd578063eed8e1ee14610210578063f2fde38b14610219578063fbe5d9171461022c57600080fd5b806380df9936146101a65780638da5cb5b146101b9578063a1c4f55a146101d757600080fd5b806342619f66116100bd57806342619f66146101595780634610852b14610196578063715018a61461019e57600080fd5b806204fd88146100e357806302702ee8146100ff5780632a332b2a14610144575b600080fd5b6100ec60025481565b6040519081526020015b60405180910390f35b60015461011f9073ffffffffffffffffffffffffffffffffffffffff1681565b60405173ffffffffffffffffffffffffffffffffffffffff90911681526020016100f6565b6101576101523660046105cb565b610234565b005b6001546101819074010000000000000000000000000000000000000000900463ffffffff1681565b60405163ffffffff90911681526020016100f6565b610157610283565b61015761032a565b6101576101b4366004610606565b61033e565b60005473ffffffffffffffffffffffffffffffffffffffff1661011f565b60015474010000000000000000000000000000000000000000900463ffffffff16610181565b61015761020b366004610606565b61034b565b6100ec60035481565b6101576102273660046105cb565b6103e3565b6003546100ec565b61023c610497565b600180547fffffffffffffffffffffffff00000000000000000000000000000000000000001673ffffffffffffffffffffffffffffffffffffffff92909216919091179055565b600160009054906101000a900473ffffffffffffffffffffffffffffffffffffffff1673ffffffffffffffffffffffffffffffffffffffff166380a061606040518163ffffffff1660e01b8152600401602060405180830381600087803b1580156102ed57600080fd5b505af1158015610301573d6000803e3d6000fd5b505050506040513d601f19601f82011682018060405250810190610325919061061e565b600355565b610332610497565b61033c6000610518565b565b610346610497565b600255565b60015473ffffffffffffffffffffffffffffffffffffffff1633146103d1576040517f08c379a000000000000000000000000000000000000000000000000000000000815260206004820152601760248201527f4f6e6c792050616e63616b65537761704c6f747465727900000000000000000060448201526064015b60405180910390fd5b6103e06000801b60025461058d565b50565b6103eb610497565b73ffffffffffffffffffffffffffffffffffffffff811661048e576040517f08c379a000000000000000000000000000000000000000000000000000000000815260206004820152602660248201527f4f776e61626c653a206e6577206f776e657220697320746865207a65726f206160448201527f646472657373000000000000000000000000000000000000000000000000000060648201526084016103c8565b6103e081610518565b60005473ffffffffffffffffffffffffffffffffffffffff16331461033c576040517f08c379a000000000000000000000000000000000000000000000000000000000815260206004820181905260248201527f4f776e61626c653a2063616c6c6572206973206e6f7420746865206f776e657260448201526064016103c8565b6000805473ffffffffffffffffffffffffffffffffffffffff8381167fffffffffffffffffffffffff0000000000000000000000000000000000000000831681178455604051919092169283917f8be0079c531659141344cd1fd0a4f28419497f9722a3daafe3b4186f6b6457e09190a35050565b61059a620f424082610673565b6105a790620f4240610636565b600160146101000a81548163ffffffff021916908363ffffffff1602179055505050565b6000602082840312156105dc578081fd5b813573ffffffffffffffffffffffffffffffffffffffff811681146105ff578182fd5b9392505050565b600060208284031215610617578081fd5b5035919050565b60006020828403121561062f578081fd5b5051919050565b6000821982111561066e577f4e487b710000000000000000000000000000000000000000000000000000000081526011600452602481fd5b500190565b6000826106a7577f4e487b710000000000000000000000000000000000000000000000000000000081526012600452602481fd5b50069056fea2646970667358221220814eb01b40f2d9b5a3991ac515e55b668bc36bf6c8971acbd87c8e276bb3c63664736f6c63430008040033","opcodes":"PUSH1 0x80 PUSH1 0x40 MSTORE CALLVALUE DUP1 ISZERO PUSH2 0x10 JUMPI PUSH1 0x0 DUP1 REVERT JUMPDEST POP PUSH2 0x1A CALLER PUSH2 0x1F JUMP JUMPDEST PUSH2 0x6F JUMP JUMPDEST PUSH1 0x0 DUP1 SLOAD PUSH1 0x1 PUSH1 0x1 PUSH1 0xA0 SHL SUB DUP4 DUP2 AND PUSH1 0x1 PUSH1 0x1 PUSH1 0xA0 SHL SUB NOT DUP4 AND DUP2 OR DUP5 SSTORE PUSH1 0x40 MLOAD SWAP2 SWAP1 SWAP3 AND SWAP3 DUP4 SWAP2 PUSH32 0x8BE0079C531659141344CD1FD0A4F28419497F9722A3DAAFE3B4186F6B6457E0 SWAP2 SWAP1 LOG3 POP POP JUMP JUMPDEST PUSH2 0x6E2 DUP1 PUSH2 0x7E PUSH1 0x0 CODECOPY PUSH1 0x0 RETURN INVALID PUSH1 0x80 PUSH1 0x40 MSTORE CALLVALUE DUP1 ISZERO PUSH2 0x10 JUMPI PUSH1 0x0 DUP1 REVERT JUMPDEST POP PUSH1 0x4 CALLDATASIZE LT PUSH2 0xDE JUMPI PUSH1 0x0 CALLDATALOAD PUSH1 0xE0 SHR DUP1 PUSH4 0x80DF9936 GT PUSH2 0x8C JUMPI DUP1 PUSH4 0xB37217A4 GT PUSH2 0x66 JUMPI DUP1 PUSH4 0xB37217A4 EQ PUSH2 0x1FD JUMPI DUP1 PUSH4 0xEED8E1EE EQ PUSH2 0x210 JUMPI DUP1 PUSH4 0xF2FDE38B EQ PUSH2 0x219 JUMPI DUP1 PUSH4 0xFBE5D917 EQ PUSH2 0x22C JUMPI PUSH1 0x0 DUP1 REVERT JUMPDEST DUP1 PUSH4 0x80DF9936 EQ PUSH2 0x1A6 JUMPI DUP1 PUSH4 0x8DA5CB5B EQ PUSH2 0x1B9 JUMPI DUP1 PUSH4 0xA1C4F55A EQ PUSH2 0x1D7 JUMPI PUSH1 0x0 DUP1 REVERT JUMPDEST DUP1 PUSH4 0x42619F66 GT PUSH2 0xBD JUMPI DUP1 PUSH4 0x42619F66 EQ PUSH2 0x159 JUMPI DUP1 PUSH4 0x4610852B EQ PUSH2 0x196 JUMPI DUP1 PUSH4 0x715018A6 EQ PUSH2 0x19E JUMPI PUSH1 0x0 DUP1 REVERT JUMPDEST DUP1 PUSH3 0x4FD88 EQ PUSH2 0xE3 JUMPI DUP1 PUSH4 0x2702EE8 EQ PUSH2 0xFF JUMPI DUP1 PUSH4 0x2A332B2A EQ PUSH2 0x144 JUMPI JUMPDEST PUSH1 0x0 DUP1 REVERT JUMPDEST PUSH2 0xEC PUSH1 0x2 SLOAD DUP2 JUMP JUMPDEST PUSH1 0x40 MLOAD SWAP1 DUP2 MSTORE PUSH1 0x20 ADD JUMPDEST PUSH1 0x40 MLOAD DUP1 SWAP2 SUB SWAP1 RETURN JUMPDEST PUSH1 0x1 SLOAD PUSH2 0x11F SWAP1 PUSH20 0xFFFFFFFFFFFFFFFFFFFFFFFFFFFFFFFFFFFFFFFF AND DUP2 JUMP JUMPDEST PUSH1 0x40 MLOAD PUSH20 0xFFFFFFFFFFFFFFFFFFFFFFFFFFFFFFFFFFFFFFFF SWAP1 SWAP2 AND DUP2 MSTORE PUSH1 0x20 ADD PUSH2 0xF6 JUMP JUMPDEST PUSH2 0x157 PUSH2 0x152 CALLDATASIZE PUSH1 0x4 PUSH2 0x5CB JUMP JUMPDEST PUSH2 0x234 JUMP JUMPDEST STOP JUMPDEST PUSH1 0x1 SLOAD PUSH2 0x181 SWAP1 PUSH21 0x10000000000000000000000000000000000000000 SWAP1 DIV PUSH4 0xFFFFFFFF AND DUP2 JUMP JUMPDEST PUSH1 0x40 MLOAD PUSH4 0xFFFFFFFF SWAP1 SWAP2 AND DUP2 MSTORE PUSH1 0x20 ADD PUSH2 0xF6 JUMP JUMPDEST PUSH2 0x157 PUSH2 0x283 JUMP JUMPDEST PUSH2 0x157 PUSH2 0x32A JUMP JUMPDEST PUSH2 0x157 PUSH2 0x1B4 CALLDATASIZE PUSH1 0x4 PUSH2 0x606 JUMP JUMPDEST PUSH2 0x33E JUMP JUMPDEST PUSH1 0x0 SLOAD PUSH20 0xFFFFFFFFFFFFFFFFFFFFFFFFFFFFFFFFFFFFFFFF AND PUSH2 0x11F JUMP JUMPDEST PUSH1 0x1 SLOAD PUSH21 0x10000000000000000000000000000000000000000 SWAP1 DIV PUSH4 0xFFFFFFFF AND PUSH2 0x181 JUMP JUMPDEST PUSH2 0x157 PUSH2 0x20B CALLDATASIZE PUSH1 0x4 PUSH2 0x606 JUMP JUMPDEST PUSH2 0x34B JUMP JUMPDEST PUSH2 0xEC PUSH1 0x3 SLOAD DUP2 JUMP JUMPDEST PUSH2 0x157 PUSH2 0x227 CALLDATASIZE PUSH1 0x4 PUSH2 0x5CB JUMP JUMPDEST PUSH2 0x3E3 JUMP JUMPDEST PUSH1 0x3 SLOAD PUSH2 0xEC JUMP JUMPDEST PUSH2 0x23C PUSH2 0x497 JUMP JUMPDEST PUSH1 0x1 DUP1 SLOAD PUSH32 0xFFFFFFFFFFFFFFFFFFFFFFFF0000000000000000000000000000000000000000 AND PUSH20 0xFFFFFFFFFFFFFFFFFFFFFFFFFFFFFFFFFFFFFFFF SWAP3 SWAP1 SWAP3 AND SWAP2 SWAP1 SWAP2 OR SWAP1 SSTORE JUMP JUMPDEST PUSH1 0x1 PUSH1 0x0 SWAP1 SLOAD SWAP1 PUSH2 0x100 EXP SWAP1 DIV PUSH20 0xFFFFFFFFFFFFFFFFFFFFFFFFFFFFFFFFFFFFFFFF AND PUSH20 0xFFFFFFFFFFFFFFFFFFFFFFFFFFFFFFFFFFFFFFFF AND PUSH4 0x80A06160 PUSH1 0x40 MLOAD DUP2 PUSH4 0xFFFFFFFF AND PUSH1 0xE0 SHL DUP2 MSTORE PUSH1 0x4 ADD PUSH1 0x20 PUSH1 0x40 MLOAD DUP1 DUP4 SUB DUP2 PUSH1 0x0 DUP8 DUP1 EXTCODESIZE ISZERO DUP1 ISZERO PUSH2 0x2ED JUMPI PUSH1 0x0 DUP1 REVERT JUMPDEST POP GAS CALL ISZERO DUP1 ISZERO PUSH2 0x301 JUMPI RETURNDATASIZE PUSH1 0x0 DUP1 RETURNDATACOPY RETURNDATASIZE PUSH1 0x0 REVERT JUMPDEST POP POP POP POP PUSH1 0x40 MLOAD RETURNDATASIZE PUSH1 0x1F NOT PUSH1 0x1F DUP3 ADD AND DUP3 ADD DUP1 PUSH1 0x40 MSTORE POP DUP2 ADD SWAP1 PUSH2 0x325 SWAP2 SWAP1 PUSH2 0x61E JUMP JUMPDEST PUSH1 0x3 SSTORE JUMP JUMPDEST PUSH2 0x332 PUSH2 0x497 JUMP JUMPDEST PUSH2 0x33C PUSH1 0x0 PUSH2 0x518 JUMP JUMPDEST JUMP JUMPDEST PUSH2 0x346 PUSH2 0x497 JUMP JUMPDEST PUSH1 0x2 SSTORE JUMP JUMPDEST PUSH1 0x1 SLOAD PUSH20 0xFFFFFFFFFFFFFFFFFFFFFFFFFFFFFFFFFFFFFFFF AND CALLER EQ PUSH2 0x3D1 JUMPI PUSH1 0x40 MLOAD PUSH32 0x8C379A000000000000000000000000000000000000000000000000000000000 DUP2 MSTORE PUSH1 0x20 PUSH1 0x4 DUP3 ADD MSTORE PUSH1 0x17 PUSH1 0x24 DUP3 ADD MSTORE PUSH32 0x4F6E6C792050616E63616B65537761704C6F7474657279000000000000000000 PUSH1 0x44 DUP3 ADD MSTORE PUSH1 0x64 ADD JUMPDEST PUSH1 0x40 MLOAD DUP1 SWAP2 SUB SWAP1 REVERT JUMPDEST PUSH2 0x3E0 PUSH1 0x0 DUP1 SHL PUSH1 0x2 SLOAD PUSH2 0x58D JUMP JUMPDEST POP JUMP JUMPDEST PUSH2 0x3EB PUSH2 0x497 JUMP JUMPDEST PUSH20 0xFFFFFFFFFFFFFFFFFFFFFFFFFFFFFFFFFFFFFFFF DUP2 AND PUSH2 0x48E JUMPI PUSH1 0x40 MLOAD PUSH32 0x8C379A000000000000000000000000000000000000000000000000000000000 DUP2 MSTORE PUSH1 0x20 PUSH1 0x4 DUP3 ADD MSTORE PUSH1 0x26 PUSH1 0x24 DUP3 ADD MSTORE PUSH32 0x4F776E61626C653A206E6577206F776E657220697320746865207A65726F2061 PUSH1 0x44 DUP3 ADD MSTORE PUSH32 0x6464726573730000000000000000000000000000000000000000000000000000 PUSH1 0x64 DUP3 ADD MSTORE PUSH1 0x84 ADD PUSH2 0x3C8 JUMP JUMPDEST PUSH2 0x3E0 DUP2 PUSH2 0x518 JUMP JUMPDEST PUSH1 0x0 SLOAD PUSH20 0xFFFFFFFFFFFFFFFFFFFFFFFFFFFFFFFFFFFFFFFF AND CALLER EQ PUSH2 0x33C JUMPI PUSH1 0x40 MLOAD PUSH32 0x8C379A000000000000000000000000000000000000000000000000000000000 DUP2 MSTORE PUSH1 0x20 PUSH1 0x4 DUP3 ADD DUP2 SWAP1 MSTORE PUSH1 0x24 DUP3 ADD MSTORE PUSH32 0x4F776E61626C653A2063616C6C6572206973206E6F7420746865206F776E6572 PUSH1 0x44 DUP3 ADD MSTORE PUSH1 0x64 ADD PUSH2 0x3C8 JUMP JUMPDEST PUSH1 0x0 DUP1 SLOAD PUSH20 0xFFFFFFFFFFFFFFFFFFFFFFFFFFFFFFFFFFFFFFFF DUP4 DUP2 AND PUSH32 0xFFFFFFFFFFFFFFFFFFFFFFFF0000000000000000000000000000000000000000 DUP4 AND DUP2 OR DUP5 SSTORE PUSH1 0x40 MLOAD SWAP2 SWAP1 SWAP3 AND SWAP3 DUP4 SWAP2 PUSH32 0x8BE0079C531659141344CD1FD0A4F28419497F9722A3DAAFE3B4186F6B6457E0 SWAP2 SWAP1 LOG3 POP POP JUMP JUMPDEST PUSH2 0x59A PUSH3 0xF4240 DUP3 PUSH2 0x673 JUMP JUMPDEST PUSH2 0x5A7 SWAP1 PUSH3 0xF4240 PUSH2 0x636 JUMP JUMPDEST PUSH1 0x1 PUSH1 0x14 PUSH2 0x100 EXP DUP2 SLOAD DUP2 PUSH4 0xFFFFFFFF MUL NOT AND SWAP1 DUP4 PUSH4 0xFFFFFFFF AND MUL OR SWAP1 SSTORE POP POP POP JUMP JUMPDEST PUSH1 0x0 PUSH1 0x20 DUP3 DUP5 SUB SLT ISZERO PUSH2 0x5DC JUMPI DUP1 DUP2 REVERT JUMPDEST DUP2 CALLDATALOAD PUSH20 0xFFFFFFFFFFFFFFFFFFFFFFFFFFFFFFFFFFFFFFFF DUP2 AND DUP2 EQ PUSH2 0x5FF JUMPI DUP2 DUP3 REVERT JUMPDEST SWAP4 SWAP3 POP POP POP JUMP JUMPDEST PUSH1 0x0 PUSH1 0x20 DUP3 DUP5 SUB SLT ISZERO PUSH2 0x617 JUMPI DUP1 DUP2 REVERT JUMPDEST POP CALLDATALOAD SWAP2 SWAP1 POP JUMP JUMPDEST PUSH1 0x0 PUSH1 0x20 DUP3 DUP5 SUB SLT ISZERO PUSH2 0x62F JUMPI DUP1 DUP2 REVERT JUMPDEST POP MLOAD SWAP2 SWAP1 POP JUMP JUMPDEST PUSH1 0x0 DUP3 NOT DUP3 GT ISZERO PUSH2 0x66E JUMPI PUSH32 0x4E487B7100000000000000000000000000000000000000000000000000000000 DUP2 MSTORE PUSH1 0x11 PUSH1 0x4 MSTORE PUSH1 0x24 DUP2 REVERT JUMPDEST POP ADD SWAP1 JUMP JUMPDEST PUSH1 0x0 DUP3 PUSH2 0x6A7 JUMPI PUSH32 0x4E487B7100000000000000000000000000000000000000000000000000000000 DUP2 MSTORE PUSH1 0x12 PUSH1 0x4 MSTORE PUSH1 0x24 DUP2 REVERT JUMPDEST POP MOD SWAP1 JUMP INVALID LOG2 PUSH5 0x6970667358 0x22 SLT KECCAK256 DUP2 0x4E 0xB0 SHL BLOCKHASH CALLCODE 0xD9 0xB5 LOG3 SWAP10 BYTE 0xC5 ISZERO 0xE5 JUMPDEST PUSH7 0x8BC36BF6C8971A 0xCB 0xD8 PUSH29 0x8E276BB3C63664736F6C63430008040033000000000000000000000000 "},"methodIdentifiers":{"changeLatestLotteryId()":"4610852b","getRandomNumber(uint256)":"b37217a4","kyotoSwapLottery()":"02702ee8","latestLotteryId()":"eed8e1ee","nextRandomResult()":"0004fd88","owner()":"8da5cb5b","randomResult()":"42619f66","renounceOwnership()":"715018a6","setLotteryAddress(address)":"2a332b2a","setNextRandomResult(uint256)":"80df9936","transferOwnership(address)":"f2fde38b","viewLatestLotteryId()":"fbe5d917","viewRandomResult()":"a1c4f55a"}}}}}