{
  "_format": "hh-sol-artifact-1",
  "contractName": "KyotoSwapLottery",
  "sourceName": "contracts/KyotoSwapLottery.sol",
  "abi": [
    {
      "inputs": [
        {
          "internalType": "address",
          "name": "_kswapTokenAddress",
          "type": "address"
        },
        {
          "internalType": "address",
          "name": "_randomGeneratorAddress",
          "type": "address"
        }
      ],
      "stateMutability": "nonpayable",
      "type": "constructor"
    },
    {
      "anonymous": false,
      "inputs": [
        {
          "indexed": false,
          "internalType": "address",
          "name": "token",
          "type": "address"
        },
        {
          "indexed": false,
          "internalType": "uint256",
          "name": "amount",
          "type": "uint256"
        }
      ],
      "name": "AdminTokenRecovery",
      "type": "event"
    },
    {
      "anonymous": false,
      "inputs": [
        {
          "indexed": true,
          "internalType": "uint256",
          "name": "lotteryId",
          "type": "uint256"
        },
        {
          "indexed": false,
          "internalType": "uint256",
          "name": "firstTicketIdNextLottery",
          "type": "uint256"
        }
      ],
      "name": "LotteryClose",
      "type": "event"
    },
    {
      "anonymous": false,
      "inputs": [
        {
          "indexed": true,
          "internalType": "uint256",
          "name": "lotteryId",
          "type": "uint256"
        },
        {
          "indexed": false,
          "internalType": "uint256",
          "name": "injectedAmount",
          "type": "uint256"
        }
      ],
      "name": "LotteryInjection",
      "type": "event"
    },
    {
      "anonymous": false,
      "inputs": [
        {
          "indexed": true,
          "internalType": "uint256",
          "name": "lotteryId",
          "type": "uint256"
        },
        {
          "indexed": false,
          "internalType": "uint256",
          "name": "finalNumber",
          "type": "uint256"
        },
        {
          "indexed": false,
          "internalType": "uint256",
          "name": "countWinningTickets",
          "type": "uint256"
        }
      ],
      "name": "LotteryNumberDrawn",
      "type": "event"
    },
    {
      "anonymous": false,
      "inputs": [
        {
          "indexed": true,
          "internalType": "uint256",
          "name": "lotteryId",
          "type": "uint256"
        },
        {
          "indexed": false,
          "internalType": "uint256",
          "name": "startTime",
          "type": "uint256"
        },
        {
          "indexed": false,
          "internalType": "uint256",
          "name": "endTime",
          "type": "uint256"
        },
        {
          "indexed": false,
          "internalType": "uint256",
          "name": "priceTicketInKSwap",
          "type": "uint256"
        },
        {
          "indexed": false,
          "internalType": "uint256",
          "name": "firstTicketId",
          "type": "uint256"
        },
        {
          "indexed": false,
          "internalType": "uint256",
          "name": "injectedAmount",
          "type": "uint256"
        }
      ],
      "name": "LotteryOpen",
      "type": "event"
    },
    {
      "anonymous": false,
      "inputs": [
        {
          "indexed": false,
          "internalType": "address",
          "name": "operator",
          "type": "address"
        },
        {
          "indexed": false,
          "internalType": "address",
          "name": "treasury",
          "type": "address"
        },
        {
          "indexed": false,
          "internalType": "address",
          "name": "injector",
          "type": "address"
        }
      ],
      "name": "NewOperatorAndTreasuryAndInjectorAddresses",
      "type": "event"
    },
    {
      "anonymous": false,
      "inputs": [
        {
          "indexed": true,
          "internalType": "address",
          "name": "randomGenerator",
          "type": "address"
        }
      ],
      "name": "NewRandomGenerator",
      "type": "event"
    },
    {
      "anonymous": false,
      "inputs": [
        {
          "indexed": true,
          "internalType": "address",
          "name": "previousOwner",
          "type": "address"
        },
        {
          "indexed": true,
          "internalType": "address",
          "name": "newOwner",
          "type": "address"
        }
      ],
      "name": "OwnershipTransferred",
      "type": "event"
    },
    {
      "anonymous": false,
      "inputs": [
        {
          "indexed": true,
          "internalType": "address",
          "name": "claimer",
          "type": "address"
        },
        {
          "indexed": false,
          "internalType": "uint256",
          "name": "amount",
          "type": "uint256"
        },
        {
          "indexed": true,
          "internalType": "uint256",
          "name": "lotteryId",
          "type": "uint256"
        },
        {
          "indexed": false,
          "internalType": "uint256",
          "name": "numberTickets",
          "type": "uint256"
        }
      ],
      "name": "TicketsClaim",
      "type": "event"
    },
    {
      "anonymous": false,
      "inputs": [
        {
          "indexed": true,
          "internalType": "address",
          "name": "buyer",
          "type": "address"
        },
        {
          "indexed": true,
          "internalType": "uint256",
          "name": "lotteryId",
          "type": "uint256"
        },
        {
          "indexed": false,
          "internalType": "uint256",
          "name": "numberTickets",
          "type": "uint256"
        }
      ],
      "name": "TicketsPurchase",
      "type": "event"
    },
    {
      "inputs": [],
      "name": "MAX_LENGTH_LOTTERY",
      "outputs": [
        {
          "internalType": "uint256",
          "name": "",
          "type": "uint256"
        }
      ],
      "stateMutability": "view",
      "type": "function"
    },
    {
      "inputs": [],
      "name": "MAX_TREASURY_FEE",
      "outputs": [
        {
          "internalType": "uint256",
          "name": "",
          "type": "uint256"
        }
      ],
      "stateMutability": "view",
      "type": "function"
    },
    {
      "inputs": [],
      "name": "MIN_DISCOUNT_DIVISOR",
      "outputs": [
        {
          "internalType": "uint256",
          "name": "",
          "type": "uint256"
        }
      ],
      "stateMutability": "view",
      "type": "function"
    },
    {
      "inputs": [],
      "name": "MIN_LENGTH_LOTTERY",
      "outputs": [
        {
          "internalType": "uint256",
          "name": "",
          "type": "uint256"
        }
      ],
      "stateMutability": "view",
      "type": "function"
    },
    {
      "inputs": [
        {
          "internalType": "uint256",
          "name": "_lotteryId",
          "type": "uint256"
        },
        {
          "internalType": "uint32[]",
          "name": "_ticketNumbers",
          "type": "uint32[]"
        }
      ],
      "name": "buyTickets",
      "outputs": [],
      "stateMutability": "nonpayable",
      "type": "function"
    },
    {
      "inputs": [
        {
          "internalType": "uint256",
          "name": "_discountDivisor",
          "type": "uint256"
        },
        {
          "internalType": "uint256",
          "name": "_priceTicket",
          "type": "uint256"
        },
        {
          "internalType": "uint256",
          "name": "_numberTickets",
          "type": "uint256"
        }
      ],
      "name": "calculateTotalPriceForBulkTickets",
      "outputs": [
        {
          "internalType": "uint256",
          "name": "",
          "type": "uint256"
        }
      ],
      "stateMutability": "pure",
      "type": "function"
    },
    {
      "inputs": [
        {
          "internalType": "address",
          "name": "_randomGeneratorAddress",
          "type": "address"
        }
      ],
      "name": "changeRandomGenerator",
      "outputs": [],
      "stateMutability": "nonpayable",
      "type": "function"
    },
    {
      "inputs": [
        {
          "internalType": "uint256",
          "name": "_lotteryId",
          "type": "uint256"
        },
        {
          "internalType": "uint256[]",
          "name": "_ticketIds",
          "type": "uint256[]"
        },
        {
          "internalType": "uint32[]",
          "name": "_brackets",
          "type": "uint32[]"
        }
      ],
      "name": "claimTickets",
      "outputs": [],
      "stateMutability": "nonpayable",
      "type": "function"
    },
    {
      "inputs": [
        {
          "internalType": "uint256",
          "name": "_lotteryId",
          "type": "uint256"
        }
      ],
      "name": "closeLottery",
      "outputs": [],
      "stateMutability": "nonpayable",
      "type": "function"
    },
    {
      "inputs": [],
      "name": "currentLotteryId",
      "outputs": [
        {
          "internalType": "uint256",
          "name": "",
          "type": "uint256"
        }
      ],
      "stateMutability": "view",
      "type": "function"
    },
    {
      "inputs": [],
      "name": "currentTicketId",
      "outputs": [
        {
          "internalType": "uint256",
          "name": "",
          "type": "uint256"
        }
      ],
      "stateMutability": "view",
      "type": "function"
    },
    {
      "inputs": [
        {
          "internalType": "uint256",
          "name": "_lotteryId",
          "type": "uint256"
        },
        {
          "internalType": "bool",
          "name": "_autoInjection",
          "type": "bool"
        }
      ],
      "name": "drawFinalNumberAndMakeLotteryClaimable",
      "outputs": [],
      "stateMutability": "nonpayable",
      "type": "function"
    },
    {
      "inputs": [
        {
          "internalType": "uint256",
          "name": "_lotteryId",
          "type": "uint256"
        },
        {
          "internalType": "uint256",
          "name": "_amount",
          "type": "uint256"
        }
      ],
      "name": "injectFunds",
      "outputs": [],
      "stateMutability": "nonpayable",
      "type": "function"
    },
    {
      "inputs": [],
      "name": "injectorAddress",
      "outputs": [
        {
          "internalType": "address",
          "name": "",
          "type": "address"
        }
      ],
      "stateMutability": "view",
      "type": "function"
    },
    {
      "inputs": [],
      "name": "kSwapToken",
      "outputs": [
        {
          "internalType": "contract IERC20",
          "name": "",
          "type": "address"
        }
      ],
      "stateMutability": "view",
      "type": "function"
    },
    {
      "inputs": [],
      "name": "maxNumberTicketsPerBuyOrClaim",
      "outputs": [
        {
          "internalType": "uint256",
          "name": "",
          "type": "uint256"
        }
      ],
      "stateMutability": "view",
      "type": "function"
    },
    {
      "inputs": [],
      "name": "maxPriceTicketInKSwap",
      "outputs": [
        {
          "internalType": "uint256",
          "name": "",
          "type": "uint256"
        }
      ],
      "stateMutability": "view",
      "type": "function"
    },
    {
      "inputs": [],
      "name": "minPriceTicketInKSwap",
      "outputs": [
        {
          "internalType": "uint256",
          "name": "",
          "type": "uint256"
        }
      ],
      "stateMutability": "view",
      "type": "function"
    },
    {
      "inputs": [],
      "name": "operatorAddress",
      "outputs": [
        {
          "internalType": "address",
          "name": "",
          "type": "address"
        }
      ],
      "stateMutability": "view",
      "type": "function"
    },
    {
      "inputs": [],
      "name": "owner",
      "outputs": [
        {
          "internalType": "address",
          "name": "",
          "type": "address"
        }
      ],
      "stateMutability": "view",
      "type": "function"
    },
    {
      "inputs": [],
      "name": "pendingInjectionNextLottery",
      "outputs": [
        {
          "internalType": "uint256",
          "name": "",
          "type": "uint256"
        }
      ],
      "stateMutability": "view",
      "type": "function"
    },
    {
      "inputs": [],
      "name": "pendingInjectionNextLotteryInERC20",
      "outputs": [
        {
          "internalType": "uint256",
          "name": "",
          "type": "uint256"
        }
      ],
      "stateMutability": "view",
      "type": "function"
    },
    {
      "inputs": [],
      "name": "randomGenerator",
      "outputs": [
        {
          "internalType": "contract IRandomNumberGenerator",
          "name": "",
          "type": "address"
        }
      ],
      "stateMutability": "view",
      "type": "function"
    },
    {
      "inputs": [
        {
          "internalType": "address",
          "name": "_tokenAddress",
          "type": "address"
        },
        {
          "internalType": "uint256",
          "name": "_tokenAmount",
          "type": "uint256"
        }
      ],
      "name": "recoverWrongTokens",
      "outputs": [],
      "stateMutability": "nonpayable",
      "type": "function"
    },
    {
      "inputs": [],
      "name": "renounceOwnership",
      "outputs": [],
      "stateMutability": "nonpayable",
      "type": "function"
    },
    {
      "inputs": [
        {
          "internalType": "uint256",
          "name": "_maxNumberTicketsPerBuy",
          "type": "uint256"
        }
      ],
      "name": "setMaxNumberTicketsPerBuy",
      "outputs": [],
      "stateMutability": "nonpayable",
      "type": "function"
    },
    {
      "inputs": [
        {
          "internalType": "uint256",
          "name": "_minPriceTicketInKSwap",
          "type": "uint256"
        },
        {
          "internalType": "uint256",
          "name": "_maxPriceTicketInKSwap",
          "type": "uint256"
        }
      ],
      "name": "setMinAndMaxTicketPriceInKSwap",
      "outputs": [],
      "stateMutability": "nonpayable",
      "type": "function"
    },
    {
      "inputs": [
        {
          "internalType": "address",
          "name": "_operatorAddress",
          "type": "address"
        },
        {
          "internalType": "address",
          "name": "_treasuryAddress",
          "type": "address"
        },
        {
          "internalType": "address",
          "name": "_injectorAddress",
          "type": "address"
        }
      ],
      "name": "setOperatorAndTreasuryAndInjectorAddresses",
      "outputs": [],
      "stateMutability": "nonpayable",
      "type": "function"
    },
    {
      "inputs": [
        {
          "internalType": "uint256",
          "name": "_endTime",
          "type": "uint256"
        },
        {
          "internalType": "uint256",
          "name": "_priceTicketInKSwap",
          "type": "uint256"
        },
        {
          "internalType": "uint256",
          "name": "_discountDivisor",
          "type": "uint256"
        },
        {
          "internalType": "uint256[6]",
          "name": "_rewardsBreakdown",
          "type": "uint256[6]"
        },
        {
          "internalType": "uint256",
          "name": "_treasuryFee",
          "type": "uint256"
        },
        {
          "internalType": "uint8",
          "name": "_rewardType",
          "type": "uint8"
        },
        {
          "internalType": "address",
          "name": "_contractAddr",
          "type": "address"
        },
        {
          "internalType": "uint256",
          "name": "_rewardQuantity",
          "type": "uint256"
        }
      ],
      "name": "startLottery",
      "outputs": [],
      "stateMutability": "nonpayable",
      "type": "function"
    },
    {
      "inputs": [
        {
          "internalType": "address",
          "name": "newOwner",
          "type": "address"
        }
      ],
      "name": "transferOwnership",
      "outputs": [],
      "stateMutability": "nonpayable",
      "type": "function"
    },
    {
      "inputs": [],
      "name": "treasuryAddress",
      "outputs": [
        {
          "internalType": "address",
          "name": "",
          "type": "address"
        }
      ],
      "stateMutability": "view",
      "type": "function"
    },
    {
      "inputs": [],
      "name": "viewCurrentLotteryId",
      "outputs": [
        {
          "internalType": "uint256",
          "name": "",
          "type": "uint256"
        }
      ],
      "stateMutability": "view",
      "type": "function"
    },
    {
      "inputs": [
        {
          "internalType": "uint256",
          "name": "_lotteryId",
          "type": "uint256"
        }
      ],
      "name": "viewLottery",
      "outputs": [
        {
          "components": [
            {
              "internalType": "enum KyotoSwapLottery.Status",
              "name": "status",
              "type": "uint8"
            },
            {
              "internalType": "uint256",
              "name": "startTime",
              "type": "uint256"
            },
            {
              "internalType": "uint256",
              "name": "endTime",
              "type": "uint256"
            },
            {
              "internalType": "uint256",
              "name": "priceTicketInKSwap",
              "type": "uint256"
            },
            {
              "internalType": "uint256",
              "name": "discountDivisor",
              "type": "uint256"
            },
            {
              "internalType": "uint256[6]",
              "name": "rewardsBreakdown",
              "type": "uint256[6]"
            },
            {
              "internalType": "uint256",
              "name": "treasuryFee",
              "type": "uint256"
            },
            {
              "internalType": "uint256[6]",
              "name": "kswapPerBracket",
              "type": "uint256[6]"
            },
            {
              "internalType": "uint256[6]",
              "name": "countWinnersPerBracket",
              "type": "uint256[6]"
            },
            {
              "internalType": "uint256",
              "name": "firstTicketId",
              "type": "uint256"
            },
            {
              "internalType": "uint256",
              "name": "firstTicketIdNextLottery",
              "type": "uint256"
            },
            {
              "internalType": "uint256",
              "name": "amountCollectedInKSwap",
              "type": "uint256"
            },
            {
              "internalType": "uint32",
              "name": "finalNumber",
              "type": "uint32"
            },
            {
              "internalType": "enum KyotoSwapLottery.RewardType",
              "name": "rewardType",
              "type": "uint8"
            },
            {
              "components": [
                {
                  "internalType": "address",
                  "name": "contractAddr",
                  "type": "address"
                },
                {
                  "internalType": "uint256",
                  "name": "quantity",
                  "type": "uint256"
                }
              ],
              "internalType": "struct KyotoSwapLottery.Reward",
              "name": "reward",
              "type": "tuple"
            }
          ],
          "internalType": "struct KyotoSwapLottery.Lottery",
          "name": "",
          "type": "tuple"
        }
      ],
      "stateMutability": "view",
      "type": "function"
    },
    {
      "inputs": [
        {
          "internalType": "uint256[]",
          "name": "_ticketIds",
          "type": "uint256[]"
        }
      ],
      "name": "viewNumbersAndStatusesForTicketIds",
      "outputs": [
        {
          "internalType": "uint32[]",
          "name": "",
          "type": "uint32[]"
        },
        {
          "internalType": "bool[]",
          "name": "",
          "type": "bool[]"
        }
      ],
      "stateMutability": "view",
      "type": "function"
    },
    {
      "inputs": [
        {
          "internalType": "uint256",
          "name": "_lotteryId",
          "type": "uint256"
        },
        {
          "internalType": "uint256",
          "name": "_ticketId",
          "type": "uint256"
        },
        {
          "internalType": "uint32",
          "name": "_bracket",
          "type": "uint32"
        }
      ],
      "name": "viewRewardsForTicketId",
      "outputs": [
        {
          "internalType": "uint256",
          "name": "",
          "type": "uint256"
        }
      ],
      "stateMutability": "view",
      "type": "function"
    },
    {
      "inputs": [
        {
          "internalType": "address",
          "name": "_user",
          "type": "address"
        },
        {
          "internalType": "uint256",
          "name": "_lotteryId",
          "type": "uint256"
        },
        {
          "internalType": "uint256",
          "name": "_cursor",
          "type": "uint256"
        },
        {
          "internalType": "uint256",
          "name": "_size",
          "type": "uint256"
        }
      ],
      "name": "viewUserInfoForLotteryId",
      "outputs": [
        {
          "internalType": "uint256[]",
          "name": "",
          "type": "uint256[]"
        },
        {
          "internalType": "uint32[]",
          "name": "",
          "type": "uint32[]"
        },
        {
          "internalType": "bool[]",
          "name": "",
          "type": "bool[]"
        },
        {
          "internalType": "uint256",
          "name": "",
          "type": "uint256"
        }
      ],
      "stateMutability": "view",
      "type": "function"
    }
  ],
  "bytecode": "0x608060405260646007556802b5e3af16b18800006008556611c37937e080006009553480156200002e57600080fd5b506040516200547538038062005475833981016040819052620000519162000215565b60016000556200006133620001a6565b600c80546001600160a01b039384166001600160a01b031991821617909155600d805492909316911617905560106020527f6e0956cda88cad152e89927e53611735b61a5c762d1428573c6931b0a5efcb01805463ffffffff199081166001179091557f8c6065603763fec3f5742441d3833f3f43b982453612d76adb39a885e3006b5f80548216600b1790557f853b2fefe141400fef543280f93d98bd49996069f632d0d20236afeeed8e46a280548216606f1790557fb3edd0d534d647cffdae9f1294f11ad21f3fcf2814bea44c92bbb8d384a57d9e805482166104571790557f1588ac671d87f82adc0e6ae8ab009c0de98f92a20243897597e566bc59b9c12680548216612b6717905560056000527f61a7346ab5ebdac457db2a901eaf1b805239b6049a1b2f34bab85e2e274f39cb80549091166201b2071790556200024c565b600180546001600160a01b038381166001600160a01b0319831681179093556040519116919082907f8be0079c531659141344cd1fd0a4f28419497f9722a3daafe3b4186f6b6457e090600090a35050565b80516001600160a01b03811681146200021057600080fd5b919050565b6000806040838503121562000228578182fd5b6200023383620001f8565b91506200024360208401620001f8565b90509250929050565b615219806200025c6000396000f3fe608060405234801561001057600080fd5b506004361061025c5760003560e01c80638d3653b611610145578063c5f956af116100bd578063dcbad90d1161008c578063f2b3c80911610071578063f2b3c80914610510578063f2fde38b14610519578063f99aea891461052c57600080fd5b8063dcbad90d146104d0578063e9c51a05146104f057600080fd5b8063c5f956af14610480578063c914914f146104a0578063da4ca039146104b3578063db19da0d146104c657600080fd5b80639c38465311610114578063bd63bbb6116100f9578063bd63bbb614610451578063c38de5391461045a578063c4937ab91461046d57600080fd5b80639c3846531461041e5780639d8ca5311461043e57600080fd5b80638d3653b6146103c35780638da5cb5b146103cc5780638fc3539a146103ea57806398359fa11461040b57600080fd5b80635cd59931116101d8578063715018a6116101a75780637cb583bd1161018c5780637cb583bd1461039f57806380a06160146103a857806388303dbd146103b057600080fd5b8063715018a61461038457806378fe84941461038c57600080fd5b80635cd5993114610356578063686465b81461035f5780636b873788146103685780636be4097c1461037b57600080fd5b80631fe86c6b1161022f5780632e530cae116102145780632e530cae1461031b5780633f138d4b1461032e578063471aeab41461034357600080fd5b80631fe86c6b146102f25780632423807a146102fb57600080fd5b806305531eeb1461026157806307fb5a9c1461028d578063127effb2146102a457806312a9769d146102e9575b600080fd5b61027461026f3660046148de565b61053f565b6040516102849493929190614ca4565b60405180910390f35b61029661371481565b604051908152602001610284565b6003546102c49073ffffffffffffffffffffffffffffffffffffffff1681565b60405173ffffffffffffffffffffffffffffffffffffffff9091168152602001610284565b610296600a5481565b61029660075481565b61030e610309366004614972565b6109f2565b6040516102849190614d97565b610296610329366004614b60565b610c5b565b61034161033c3660046148b5565b610d09565b005b610341610351366004614a92565b610e0f565b61029660095481565b61029660065481565b610341610376366004614972565b6110ac565b61029660055481565b610341611120565b61034161039a366004614ade565b611134565b61029661012c81565b600554610296565b6103416103be366004614a19565b611a1d565b61029660085481565b60015473ffffffffffffffffffffffffffffffffffffffff166102c4565b6103fd6103f8366004614916565b612145565b604051610284929190614d18565b610341610419366004614859565b61241d565b6002546102c49073ffffffffffffffffffffffffffffffffffffffff1681565b61034161044c366004614972565b6126aa565b610296600b5481565b610341610468366004614a63565b6129c4565b61029661047b366004614ab3565b61331f565b6004546102c49073ffffffffffffffffffffffffffffffffffffffff1681565b6103416104ae3660046149a2565b6133ff565b6103416104c1366004614873565b613ca3565b6102966205472c81565b600d546102c49073ffffffffffffffffffffffffffffffffffffffff1681565b600c546102c49073ffffffffffffffffffffffffffffffffffffffff1681565b610296610bb881565b610341610527366004614859565b613ecb565b61034161053a366004614a92565b613f7f565b73ffffffffffffffffffffffffffffffffffffffff8416600090815260126020908152604080832086845290915281205460609182918291908590610584888261504e565b82111561059857610595888261504e565b91505b60008267ffffffffffffffff8111156105da577f4e487b7100000000000000000000000000000000000000000000000000000000600052604160045260246000fd5b604051908082528060200260200182016040528015610603578160200160208202803683370190505b50905060008367ffffffffffffffff811115610648577f4e487b7100000000000000000000000000000000000000000000000000000000600052604160045260246000fd5b604051908082528060200260200182016040528015610671578160200160208202803683370190505b50905060008467ffffffffffffffff8111156106b6577f4e487b7100000000000000000000000000000000000000000000000000000000600052604160045260246000fd5b6040519080825280602002602001820160405280156106df578160200160208202803683370190505b50905060005b858110156109cc57601260008f73ffffffffffffffffffffffffffffffffffffffff1673ffffffffffffffffffffffffffffffffffffffff16815260200190815260200160002060008e81526020019081526020016000208c826107499190614e9a565b81548110610780577f4e487b7100000000000000000000000000000000000000000000000000000000600052603260045260246000fd5b90600052602060002001548482815181106107c4577f4e487b7100000000000000000000000000000000000000000000000000000000600052603260045260246000fd5b602002602001018181525050600f600085838151811061080d577f4e487b7100000000000000000000000000000000000000000000000000000000600052603260045260246000fd5b6020026020010151815260200190815260200160002060000160009054906101000a900463ffffffff16838281518110610870577f4e487b7100000000000000000000000000000000000000000000000000000000600052603260045260246000fd5b602002602001019063ffffffff16908163ffffffff1681525050600073ffffffffffffffffffffffffffffffffffffffff16600f60008684815181106108df577f4e487b7100000000000000000000000000000000000000000000000000000000600052603260045260246000fd5b602090810291909101810151825281019190915260400160002054640100000000900473ffffffffffffffffffffffffffffffffffffffff16141561096e576001828281518110610959577f4e487b7100000000000000000000000000000000000000000000000000000000600052603260045260246000fd5b911515602092830291909101909101526109ba565b60008282815181106109a9577f4e487b7100000000000000000000000000000000000000000000000000000000600052603260045260246000fd5b911515602092830291909101909101525b806109c4816150b6565b9150506106e5565b508282826109da888f614e9a565b98509850985098505050505050945094509450949050565b6109fa614685565b6000828152600e60205260409081902081516101e081019092528054829060ff166003811115610a53577f4e487b7100000000000000000000000000000000000000000000000000000000600052602160045260246000fd5b6003811115610a8b577f4e487b7100000000000000000000000000000000000000000000000000000000600052602160045260246000fd5b81526001820154602082015260028201546040808301919091526003830154606083015260048301546080830152805160c081019182905260a09092019190600584019060069082845b815481526020019060010190808311610ad5575050509183525050600b82015460208201526040805160c081018252910190600c830160068282826020028201915b815481526020019060010190808311610b175750505091835250506040805160c081019182905260209092019190601284019060069082845b815481526020019060010190808311610b505750505091835250506018820154602082015260198201546040820152601a8201546060820152601b82015463ffffffff8116608083015260a090910190640100000000900460ff166001811115610be3577f4e487b7100000000000000000000000000000000000000000000000000000000600052602160045260246000fd5b6001811115610c1b577f4e487b7100000000000000000000000000000000000000000000000000000000600052602160045260246000fd5b815260408051808201909152601c83015473ffffffffffffffffffffffffffffffffffffffff168152601d90920154602083810191909152015292915050565b600060036000858152600e602052604090205460ff166003811115610ca9577f4e487b7100000000000000000000000000000000000000000000000000000000600052602160045260246000fd5b14610cb657506000610d02565b6000848152600e602052604090206019015483118015610ce757506000848152600e60205260409020601801548311155b15610cf457506000610d02565b610cff848484613ffc565b90505b9392505050565b610d1161412e565b600c5473ffffffffffffffffffffffffffffffffffffffff83811691161415610d9b576040517f08c379a000000000000000000000000000000000000000000000000000000000815260206004820152601560248201527f43616e6e6f74206265204b594f544f20746f6b656e000000000000000000000060448201526064015b60405180910390fd5b610dbc73ffffffffffffffffffffffffffffffffffffffff831633836141af565b6040805173ffffffffffffffffffffffffffffffffffffffff84168152602081018390527f74545154aac348a3eac92596bd1971957ca94795f4e954ec5f613b55fab78129910160405180910390a15050565b60015473ffffffffffffffffffffffffffffffffffffffff16331480610e4c575060025473ffffffffffffffffffffffffffffffffffffffff1633145b610eb2576040517f08c379a000000000000000000000000000000000000000000000000000000000815260206004820152601560248201527f4e6f74206f776e6572206f7220696e6a6563746f7200000000000000000000006044820152606401610d92565b60016000838152600e602052604090205460ff166003811115610efe577f4e487b7100000000000000000000000000000000000000000000000000000000600052602160045260246000fd5b14610f65576040517f08c379a000000000000000000000000000000000000000000000000000000000815260206004820152601060248201527f4c6f7474657279206e6f74206f70656e000000000000000000000000000000006044820152606401610d92565b6000828152600e60205260409020601b0154640100000000900460ff166001811115610fba577f4e487b7100000000000000000000000000000000000000000000000000000000600052602160045260246000fd5b60011415611022576000828152600e60205260409020601c0154610ff69073ffffffffffffffffffffffffffffffffffffffff16333084614283565b6000828152600e60205260408120601d018054839290611017908490614e9a565b9091555061106e9050565b600c546110479073ffffffffffffffffffffffffffffffffffffffff16333084614283565b6000828152600e60205260408120601a018054839290611068908490614e9a565b90915550505b817f1bbd659dd628a25f7ff2eabb69c74a56939c539728282275c1c9c1a2d3e34049826040516110a091815260200190565b60405180910390a25050565b6110b461412e565b8061111b576040517f08c379a000000000000000000000000000000000000000000000000000000000815260206004820152600b60248201527f4d757374206265203e20300000000000000000000000000000000000000000006044820152606401610d92565b600755565b61112861412e565b61113260006142e7565b565b60035473ffffffffffffffffffffffffffffffffffffffff1633146111b5576040517f08c379a000000000000000000000000000000000000000000000000000000000815260206004820152600c60248201527f4e6f74206f70657261746f7200000000000000000000000000000000000000006044820152606401610d92565b6005541580611210575060036005546000908152600e602052604090205460ff16600381111561120e577f4e487b7100000000000000000000000000000000000000000000000000000000600052602160045260246000fd5b145b611276576040517f08c379a000000000000000000000000000000000000000000000000000000000815260206004820152601960248201527f4e6f742074696d6520746f207374617274206c6f7474657279000000000000006044820152606401610d92565b613714611283428a61504e565b11801561129b57506205472c611299428a61504e565b105b611301576040517f08c379a000000000000000000000000000000000000000000000000000000000815260206004820152601f60248201527f4c6f7474657279206c656e677468206f757473696465206f662072616e6765006044820152606401610d92565b600954871015801561131557506008548711155b61137b576040517f08c379a000000000000000000000000000000000000000000000000000000000815260206004820152601160248201527f4f757473696465206f66206c696d6974730000000000000000000000000000006044820152606401610d92565b61012c8610156113e7576040517f08c379a000000000000000000000000000000000000000000000000000000000815260206004820152601860248201527f446973636f756e742064697669736f7220746f6f206c6f7700000000000000006044820152606401610d92565b610bb8841115611453576040517f08c379a000000000000000000000000000000000000000000000000000000000815260206004820152601560248201527f54726561737572792066656520746f6f206869676800000000000000000000006044820152606401610d92565b60a085013560808601356060870135604088013561147660208a01358a35614e9a565b6114809190614e9a565b61148a9190614e9a565b6114949190614e9a565b61149e9190614e9a565b61271014611508576040517f08c379a000000000000000000000000000000000000000000000000000000000815260206004820152601860248201527f52657761726473206d75737420657175616c20313030303000000000000000006044820152606401610d92565b60058054906000611518836150b6565b9091555050604080516101e081019091528060018152602001428152602001898152602001888152602001878152602001866006806020026040519081016040528092919082600660200280828437600081840152601f19601f82011690508083019250505050505081526020018581526020016040518060c001604052806000815260200160008152602001600081526020016000815260200160008152602001600081525081526020016040518060c0016040528060008152602001600081526020016000815260200160008152602001600081526020016000815250815260200160065481526020016006548152602001600a548152602001600063ffffffff1681526020018460ff16600181111561165d577f4e487b7100000000000000000000000000000000000000000000000000000000600052602160045260246000fd5b6001811115611695577f4e487b7100000000000000000000000000000000000000000000000000000000600052602160045260246000fd5b815260408051808201825273ffffffffffffffffffffffffffffffffffffffff86168152600b54602082810191909152928301526005546000908152600e90925290208151815482907fffffffffffffffffffffffffffffffffffffffffffffffffffffffffffffff0016600183600381111561173b577f4e487b7100000000000000000000000000000000000000000000000000000000600052602160045260246000fd5b02179055506020820151600182015560408201516002820155606082015160038201556080820151600482015560a082015161177d906005830190600661477c565b5060c0820151600b82015560e082015161179d90600c830190600661477c565b506101008201516117b4906012830190600661477c565b5061012082015160188201556101408201516019820155610160820151601a820155610180820151601b8201805463ffffffff9092167fffffffffffffffffffffffffffffffffffffffffffffffffffffffff000000008316811782556101a0850151927fffffffffffffffffffffffffffffffffffffffffffffffffffffff0000000000161764010000000083600181111561187a577f4e487b7100000000000000000000000000000000000000000000000000000000600052602160045260246000fd5b02179055506101c091909101518051601c830180547fffffffffffffffffffffffff00000000000000000000000000000000000000001673ffffffffffffffffffffffffffffffffffffffff90921691909117905560200151601d9091015560ff83166001811115611915577f4e487b7100000000000000000000000000000000000000000000000000000000600052602160045260246000fd5b600181111561194d577f4e487b7100000000000000000000000000000000000000000000000000000000600052602160045260246000fd5b600114156119b657600554600654600b5460408051428152602081018d90529081018b9052606081019290925260808201527f367e70f8c0e0c0a6504d92172bda155c02022d532fc85b5d66a9c49e31c8bc779060a00160405180910390a26000600b55611a13565b600554600654600a5460408051428152602081018d90529081018b9052606081019290925260808201527f367e70f8c0e0c0a6504d92172bda155c02022d532fc85b5d66a9c49e31c8bc779060a00160405180910390a26000600a555b5050505050505050565b333b15611a86576040517f08c379a000000000000000000000000000000000000000000000000000000000815260206004820152601460248201527f436f6e7472616374206e6f7420616c6c6f7765640000000000000000000000006044820152606401610d92565b333214611aef576040517f08c379a000000000000000000000000000000000000000000000000000000000815260206004820152601a60248201527f50726f787920636f6e7472616374206e6f7420616c6c6f7765640000000000006044820152606401610d92565b611af761435e565b80611b5e576040517f08c379a000000000000000000000000000000000000000000000000000000000815260206004820152601360248201527f4e6f207469636b657420737065636966696564000000000000000000000000006044820152606401610d92565b600754811115611bca576040517f08c379a000000000000000000000000000000000000000000000000000000000815260206004820152601060248201527f546f6f206d616e79207469636b657473000000000000000000000000000000006044820152606401610d92565b60016000848152600e602052604090205460ff166003811115611c16577f4e487b7100000000000000000000000000000000000000000000000000000000600052602160045260246000fd5b14611c7d576040517f08c379a000000000000000000000000000000000000000000000000000000000815260206004820152601360248201527f4c6f7474657279206973206e6f74206f70656e000000000000000000000000006044820152606401610d92565b6000838152600e60205260409020600201544210611cf7576040517f08c379a000000000000000000000000000000000000000000000000000000000815260206004820152600f60248201527f4c6f7474657279206973206f76657200000000000000000000000000000000006044820152606401610d92565b6000838152600e602052604081206004810154600390910154611d1b9190846143d2565b600c54909150611d439073ffffffffffffffffffffffffffffffffffffffff16333084614283565b6000848152600e60205260408120601a018054839290611d64908490614e9a565b90915550600090505b828110156120fd576000848483818110611db0577f4e487b7100000000000000000000000000000000000000000000000000000000600052603260045260246000fd5b9050602002016020810190611dc59190614b98565b9050620f42408163ffffffff1610158015611de95750621e847f8163ffffffff1611155b611e4f576040517f08c379a000000000000000000000000000000000000000000000000000000000815260206004820152600d60248201527f4f7574736964652072616e6765000000000000000000000000000000000000006044820152606401610d92565b600086815260116020526040812090611e69600a84615113565b611e74906001614eb2565b63ffffffff16815260208101919091526040016000908120805491611e98836150b6565b9091555050600086815260116020526040812090611eb7606484615113565b611ec290600b614eb2565b63ffffffff16815260208101919091526040016000908120805491611ee6836150b6565b9091555050600086815260116020526040812090611f066103e884615113565b611f1190606f614eb2565b63ffffffff16815260208101919091526040016000908120805491611f35836150b6565b9091555050600086815260116020526040812090611f5561271084615113565b611f6190610457614eb2565b63ffffffff16815260208101919091526040016000908120805491611f85836150b6565b9091555050600086815260116020526040812090611fa6620186a084615113565b611fb290612b67614eb2565b63ffffffff16815260208101919091526040016000908120805491611fd6836150b6565b9091555050600086815260116020526040812090611ff7620f424084615113565b612004906201b207614eb2565b63ffffffff16815260208101919091526040016000908120805491612028836150b6565b90915550503360008181526012602090815260408083208a84528252808320600680548254600181018455928652848620909201919091558151808301835263ffffffff808816825281850196875282548652600f90945291842091518254955173ffffffffffffffffffffffffffffffffffffffff16640100000000027fffffffffffffffff00000000000000000000000000000000000000000000000090961693169290921793909317909255815491906120e4836150b6565b91905055505080806120f5906150b6565b915050611d6d565b50604051828152849033907fd7d247b583de1023852eef87b48f54354dbec771d01bc2cc49e96094efc322b99060200160405180910390a3506121406001600055565b505050565b6060808260008167ffffffffffffffff81111561218b577f4e487b7100000000000000000000000000000000000000000000000000000000600052604160045260246000fd5b6040519080825280602002602001820160405280156121b4578160200160208202803683370190505b50905060008267ffffffffffffffff8111156121f9577f4e487b7100000000000000000000000000000000000000000000000000000000600052604160045260246000fd5b604051908082528060200260200182016040528015612222578160200160208202803683370190505b50905060005b8381101561240e57600f600089898481811061226d577f4e487b7100000000000000000000000000000000000000000000000000000000600052603260045260246000fd5b90506020020135815260200190815260200160002060000160009054906101000a900463ffffffff168382815181106122cf577f4e487b7100000000000000000000000000000000000000000000000000000000600052603260045260246000fd5b63ffffffff909216602092830291909101909101526000600f818a8a85818110612322577f4e487b7100000000000000000000000000000000000000000000000000000000600052603260045260246000fd5b6020908102929092013583525081019190915260400160002054640100000000900473ffffffffffffffffffffffffffffffffffffffff1614156123b057600182828151811061239b577f4e487b7100000000000000000000000000000000000000000000000000000000600052603260045260246000fd5b911515602092830291909101909101526123fc565b60008282815181106123eb577f4e487b7100000000000000000000000000000000000000000000000000000000600052603260045260246000fd5b911515602092830291909101909101525b80612406816150b6565b915050612228565b509093509150505b9250929050565b61242561412e565b6005541580612480575060036005546000908152600e602052604090205460ff16600381111561247e577f4e487b7100000000000000000000000000000000000000000000000000000000600052602160045260246000fd5b145b6124e6576040517f08c379a000000000000000000000000000000000000000000000000000000000815260206004820152601860248201527f4c6f7474657279206e6f7420696e20636c61696d61626c6500000000000000006044820152606401610d92565b8073ffffffffffffffffffffffffffffffffffffffff1663b37217a4600554600654604051602001612522929190918252602082015260400190565b604080518083037fffffffffffffffffffffffffffffffffffffffffffffffffffffffffffffffe001815290829052805160209091012060e083901b7fffffffff000000000000000000000000000000000000000000000000000000001682526004820152602401600060405180830381600087803b1580156125a457600080fd5b505af11580156125b8573d6000803e3d6000fd5b505050508073ffffffffffffffffffffffffffffffffffffffff1663a1c4f55a6040518163ffffffff1660e01b815260040160206040518083038186803b15801561260257600080fd5b505afa158015612616573d6000803e3d6000fd5b505050506040513d601f19601f8201168201806040525081019061263a9190614bb4565b50600d80547fffffffffffffffffffffffff00000000000000000000000000000000000000001673ffffffffffffffffffffffffffffffffffffffff83169081179091556040517f383f8cb39dfa7c3fb901a460dd449ea924868f0a92ff03da64740fffa5f1de6290600090a250565b60035473ffffffffffffffffffffffffffffffffffffffff16331461272b576040517f08c379a000000000000000000000000000000000000000000000000000000000815260206004820152600c60248201527f4e6f74206f70657261746f7200000000000000000000000000000000000000006044820152606401610d92565b61273361435e565b60016000828152600e602052604090205460ff16600381111561277f577f4e487b7100000000000000000000000000000000000000000000000000000000600052602160045260246000fd5b146127e6576040517f08c379a000000000000000000000000000000000000000000000000000000000815260206004820152601060248201527f4c6f7474657279206e6f74206f70656e000000000000000000000000000000006044820152606401610d92565b6000818152600e60205260409020600201544211612860576040517f08c379a000000000000000000000000000000000000000000000000000000000815260206004820152601060248201527f4c6f7474657279206e6f74206f766572000000000000000000000000000000006044820152606401610d92565b6006546000828152600e6020908152604091829020601901839055600d5482519182018590529181019290925273ffffffffffffffffffffffffffffffffffffffff169063b37217a490606001604080518083037fffffffffffffffffffffffffffffffffffffffffffffffffffffffffffffffe001815290829052805160209091012060e083901b7fffffffff000000000000000000000000000000000000000000000000000000001682526004820152602401600060405180830381600087803b15801561292f57600080fd5b505af1158015612943573d6000803e3d6000fd5b5050506000828152600e602090815260409182902080547fffffffffffffffffffffffffffffffffffffffffffffffffffffffffffffff0016600217905560065491519182528392507f3728e75294796694d59d2ffced9c394279baf7b9ebd2702db43f5f04bac67929910160405180910390a26129c16001600055565b50565b60035473ffffffffffffffffffffffffffffffffffffffff163314612a45576040517f08c379a000000000000000000000000000000000000000000000000000000000815260206004820152600c60248201527f4e6f74206f70657261746f7200000000000000000000000000000000000000006044820152606401610d92565b612a4d61435e565b60026000838152600e602052604090205460ff166003811115612a99577f4e487b7100000000000000000000000000000000000000000000000000000000600052602160045260246000fd5b14612b00576040517f08c379a000000000000000000000000000000000000000000000000000000000815260206004820152601160248201527f4c6f7474657279206e6f7420636c6f73650000000000000000000000000000006044820152606401610d92565b600d60009054906101000a900473ffffffffffffffffffffffffffffffffffffffff1673ffffffffffffffffffffffffffffffffffffffff1663fbe5d9176040518163ffffffff1660e01b815260040160206040518083038186803b158015612b6857600080fd5b505afa158015612b7c573d6000803e3d6000fd5b505050506040513d601f19601f82011682018060405250810190612ba0919061498a565b8214612c08576040517f08c379a000000000000000000000000000000000000000000000000000000000815260206004820152601160248201527f4e756d62657273206e6f7420647261776e0000000000000000000000000000006044820152606401610d92565b600d54604080517fa1c4f55a000000000000000000000000000000000000000000000000000000008152905160009273ffffffffffffffffffffffffffffffffffffffff169163a1c4f55a916004808301926020929190829003018186803b158015612c7357600080fd5b505afa158015612c87573d6000803e3d6000fd5b505050506040513d601f19601f82011682018060405250810190612cab9190614bb4565b6000848152600e60205260408120601b0154919250908190640100000000900460ff166001811115612d06577f4e487b7100000000000000000000000000000000000000000000000000000000600052602160045260246000fd5b60011415612d2657506000848152600e60205260409020601d0154612d3a565b506000848152600e60205260409020601a01545b6000858152600e60205260408120600b015461271090612d5a908261504e565b612d649084615011565b612d6e9190614eda565b90506000805b60068163ffffffff1610156130d2576000612d90826005615065565b90506000612d9f826001614eb2565b612daa90600a614f33565b612db49089615113565b63ffffffff808416600090815260106020526040902054612dd6929116614eb2565b60008b815260116020908152604080832063ffffffff85168452909152902054909150612e0490889061504e565b60008b8152600e6020526040902060120163ffffffff841660068110612e53577f4e487b7100000000000000000000000000000000000000000000000000000000600052603260045260246000fd5b015560008a815260116020908152604080832063ffffffff85168452909152902054612e8090889061504e565b15612ff45760008a8152600e6020526040902060050163ffffffff831660068110612ed4577f4e487b7100000000000000000000000000000000000000000000000000000000600052603260045260246000fd5b015415612fef5760008a815260116020908152604080832063ffffffff8516845290915290205461271090612f0a90899061504e565b60008c8152600e60205260409020879060050163ffffffff861660068110612f5b577f4e487b7100000000000000000000000000000000000000000000000000000000600052603260045260246000fd5b0154612f679190615011565b612f719190614eda565b612f7b9190614eda565b60008b8152600e60205260409020600c0163ffffffff841660068110612fca577f4e487b7100000000000000000000000000000000000000000000000000000000600052603260045260246000fd5b015560008a815260116020908152604080832063ffffffff8516845290915290205496505b6130bd565b60008a8152600e60205260408120600c0163ffffffff841660068110613043577f4e487b7100000000000000000000000000000000000000000000000000000000600052603260045260246000fd5b015560008a8152600e6020526040902061271090869060050163ffffffff85166006811061309a577f4e487b7100000000000000000000000000000000000000000000000000000000600052603260045260246000fd5b01546130a69190615011565b6130b09190614eda565b6130ba9085614e9a565b93505b505080806130ca906150ef565b915050612d74565b506000878152600e60205260409020601b8101805463ffffffff88167fffffffffffffffffffffffffffffffffffffffffffffffffffffffff0000000090911617905580547fffffffffffffffffffffffffffffffffffffffffffffffffffffffffffffff0016600317905585156131b1576000878152600e60205260409020601b0154640100000000900460ff166001811115613199577f4e487b7100000000000000000000000000000000000000000000000000000000600052602160045260246000fd5b600114156131ab57600b5560006131b1565b600a5560005b6000878152600e60205260409020601b0154640100000000900460ff166001811115613206577f4e487b7100000000000000000000000000000000000000000000000000000000600052602160045260246000fd5b60011415613276576000878152600e60205260409020601d015461322b90839061504e565b6132359082614e9a565b6004546000898152600e60205260409020601c01549192506132719173ffffffffffffffffffffffffffffffffffffffff9081169116836141af565b6132ca565b6000878152600e60205260409020601a015461329390839061504e565b61329d9082614e9a565b600454600c549192506132ca9173ffffffffffffffffffffffffffffffffffffffff9081169116836141af565b6005546040805163ffffffff88168152602081018790527f98e31a6607b8b15b4d5b91de54f4c09ffe4c4cf162aa532c70b5213754e2e703910160405180910390a2505050505061331b6001600055565b5050565b600061012c84101561338d576040517f08c379a000000000000000000000000000000000000000000000000000000000815260206004820152601f60248201527f4d757374206265203e3d204d494e5f444953434f554e545f44495649534f52006044820152606401610d92565b816133f4576040517f08c379a000000000000000000000000000000000000000000000000000000000815260206004820152601d60248201527f4e756d626572206f66207469636b657473206d757374206265203e20300000006044820152606401610d92565b610cff8484846143d2565b333b15613468576040517f08c379a000000000000000000000000000000000000000000000000000000000815260206004820152601460248201527f436f6e7472616374206e6f7420616c6c6f7765640000000000000000000000006044820152606401610d92565b3332146134d1576040517f08c379a000000000000000000000000000000000000000000000000000000000815260206004820152601a60248201527f50726f787920636f6e7472616374206e6f7420616c6c6f7765640000000000006044820152606401610d92565b6134d961435e565b828114613542576040517f08c379a000000000000000000000000000000000000000000000000000000000815260206004820152600f60248201527f4e6f742073616d65206c656e67746800000000000000000000000000000000006044820152606401610d92565b826135a9576040517f08c379a000000000000000000000000000000000000000000000000000000000815260206004820152601160248201527f4c656e677468206d757374206265203e300000000000000000000000000000006044820152606401610d92565b600754831115613615576040517f08c379a000000000000000000000000000000000000000000000000000000000815260206004820152601060248201527f546f6f206d616e79207469636b657473000000000000000000000000000000006044820152606401610d92565b60036000868152600e602052604090205460ff166003811115613661577f4e487b7100000000000000000000000000000000000000000000000000000000600052602160045260246000fd5b146136c8576040517f08c379a000000000000000000000000000000000000000000000000000000000815260206004820152601560248201527f4c6f7474657279206e6f7420636c61696d61626c6500000000000000000000006044820152606401610d92565b6000805b84811015613b9a57600684848381811061370f577f4e487b7100000000000000000000000000000000000000000000000000000000600052603260045260246000fd5b90506020020160208101906137249190614b98565b63ffffffff1610613791576040517f08c379a000000000000000000000000000000000000000000000000000000000815260206004820152601460248201527f427261636b6574206f7574206f662072616e67650000000000000000000000006044820152606401610d92565b60008686838181106137cc577f4e487b7100000000000000000000000000000000000000000000000000000000600052603260045260246000fd5b90506020020135905080600e60008a81526020019081526020016000206019015411613854576040517f08c379a000000000000000000000000000000000000000000000000000000000815260206004820152601160248201527f5469636b6574496420746f6f20686967680000000000000000000000000000006044820152606401610d92565b6000888152600e60205260409020601801548110156138cf576040517f08c379a000000000000000000000000000000000000000000000000000000000815260206004820152601060248201527f5469636b6574496420746f6f206c6f77000000000000000000000000000000006044820152606401610d92565b6000818152600f6020526040902054640100000000900473ffffffffffffffffffffffffffffffffffffffff163314613964576040517f08c379a000000000000000000000000000000000000000000000000000000000815260206004820152600d60248201527f4e6f7420746865206f776e6572000000000000000000000000000000000000006044820152606401610d92565b6000818152600f6020526040812080547fffffffffffffffff0000000000000000000000000000000000000000ffffffff1690556139f089838888878181106139d6577f4e487b7100000000000000000000000000000000000000000000000000000000600052603260045260246000fd5b90506020020160208101906139eb9190614b98565b613ffc565b905080613a59576040517f08c379a000000000000000000000000000000000000000000000000000000000815260206004820152601960248201527f4e6f207072697a6520666f72207468697320627261636b6574000000000000006044820152606401610d92565b858584818110613a92577f4e487b7100000000000000000000000000000000000000000000000000000000600052603260045260246000fd5b9050602002016020810190613aa79190614b98565b63ffffffff16600514613b7957613b128983888887818110613af2577f4e487b7100000000000000000000000000000000000000000000000000000000600052603260045260246000fd5b9050602002016020810190613b079190614b98565b6139eb906001614eb2565b15613b79576040517f08c379a000000000000000000000000000000000000000000000000000000000815260206004820152601660248201527f427261636b6574206d75737420626520686967686572000000000000000000006044820152606401610d92565b613b838185614e9a565b935050508080613b92906150b6565b9150506136cc565b506000868152600e60205260409020601b0154640100000000900460ff166001811115613bf0577f4e487b7100000000000000000000000000000000000000000000000000000000600052602160045260246000fd5b60011415613c30576000868152600e60205260409020601c0154613c2b9073ffffffffffffffffffffffffffffffffffffffff1633836141af565b613c54565b600c54613c549073ffffffffffffffffffffffffffffffffffffffff1633836141af565b6040805182815260208101869052879133917f0f5fca62da8fb5d95525b49e5eaa7b20bc6bd9e2f6b64b493442d1c0bd6ef486910160405180910390a350613c9c6001600055565b5050505050565b613cab61412e565b73ffffffffffffffffffffffffffffffffffffffff8316613d28576040517f08c379a000000000000000000000000000000000000000000000000000000000815260206004820152601660248201527f43616e6e6f74206265207a65726f2061646472657373000000000000000000006044820152606401610d92565b73ffffffffffffffffffffffffffffffffffffffff8216613da5576040517f08c379a000000000000000000000000000000000000000000000000000000000815260206004820152601660248201527f43616e6e6f74206265207a65726f2061646472657373000000000000000000006044820152606401610d92565b73ffffffffffffffffffffffffffffffffffffffff8116613e22576040517f08c379a000000000000000000000000000000000000000000000000000000000815260206004820152601660248201527f43616e6e6f74206265207a65726f2061646472657373000000000000000000006044820152606401610d92565b6003805473ffffffffffffffffffffffffffffffffffffffff8581167fffffffffffffffffffffffff0000000000000000000000000000000000000000928316811790935560048054868316908416811790915560028054928616929093168217909255604080519384526020840192909252908201527f3e945b7660001d46cfd5e729545f7f0b6c65bdee54066a91c7acad703f1b731e9060600160405180910390a1505050565b613ed361412e565b73ffffffffffffffffffffffffffffffffffffffff8116613f76576040517f08c379a000000000000000000000000000000000000000000000000000000000815260206004820152602660248201527f4f776e61626c653a206e6577206f776e657220697320746865207a65726f206160448201527f64647265737300000000000000000000000000000000000000000000000000006064820152608401610d92565b6129c1816142e7565b613f8761412e565b80821115613ff1576040517f08c379a000000000000000000000000000000000000000000000000000000000815260206004820152601b60248201527f6d696e5072696365206d757374206265203c206d6178507269636500000000006044820152606401610d92565b600991909155600855565b6000838152600e60209081526040808320601b0154858452600f90925282205463ffffffff918216911682614032856001614eb2565b61403d90600a614f33565b6140479084615113565b63ffffffff808716600090815260106020526040902054614069929116614eb2565b90506000614078866001614eb2565b61408390600a614f33565b61408d9084615113565b63ffffffff8088166000908152601060205260409020546140af929116614eb2565b90508063ffffffff168263ffffffff161415614121576000888152600e60205260409020600c0163ffffffff871660068110614114577f4e487b7100000000000000000000000000000000000000000000000000000000600052603260045260246000fd5b0154945050505050610d02565b6000945050505050610d02565b60015473ffffffffffffffffffffffffffffffffffffffff163314611132576040517f08c379a000000000000000000000000000000000000000000000000000000000815260206004820181905260248201527f4f776e61626c653a2063616c6c6572206973206e6f7420746865206f776e65726044820152606401610d92565b60405173ffffffffffffffffffffffffffffffffffffffff83166024820152604481018290526121409084907fa9059cbb00000000000000000000000000000000000000000000000000000000906064015b604080517fffffffffffffffffffffffffffffffffffffffffffffffffffffffffffffffe08184030181529190526020810180517bffffffffffffffffffffffffffffffffffffffffffffffffffffffff167fffffffff0000000000000000000000000000000000000000000000000000000090931692909217909152614409565b60405173ffffffffffffffffffffffffffffffffffffffff808516602483015283166044820152606481018290526142e19085907f23b872dd0000000000000000000000000000000000000000000000000000000090608401614201565b50505050565b6001805473ffffffffffffffffffffffffffffffffffffffff8381167fffffffffffffffffffffffff0000000000000000000000000000000000000000831681179093556040519116919082907f8be0079c531659141344cd1fd0a4f28419497f9722a3daafe3b4186f6b6457e090600090a35050565b600260005414156143cb576040517f08c379a000000000000000000000000000000000000000000000000000000000815260206004820152601f60248201527f5265656e7472616e637947756172643a207265656e7472616e742063616c6c006044820152606401610d92565b6002600055565b600083826143e1826001614e9a565b6143eb919061504e565b6143f58486615011565b6143ff9190615011565b610cff9190614eda565b600061446b826040518060400160405280602081526020017f5361666545524332303a206c6f772d6c6576656c2063616c6c206661696c65648152508573ffffffffffffffffffffffffffffffffffffffff166145159092919063ffffffff16565b80519091501561214057808060200190518101906144899190614956565b612140576040517f08c379a000000000000000000000000000000000000000000000000000000000815260206004820152602a60248201527f5361666545524332303a204552433230206f7065726174696f6e20646964206e60448201527f6f742073756363656564000000000000000000000000000000000000000000006064820152608401610d92565b6060610cff8484600085856000808673ffffffffffffffffffffffffffffffffffffffff1685876040516145499190614c88565b60006040518083038185875af1925050503d8060008114614586576040519150601f19603f3d011682016040523d82523d6000602084013e61458b565b606091505b509150915061459c878383876145a9565b925050505b949350505050565b6060831561463c5782516146355773ffffffffffffffffffffffffffffffffffffffff85163b614635576040517f08c379a000000000000000000000000000000000000000000000000000000000815260206004820152601d60248201527f416464726573733a2063616c6c20746f206e6f6e2d636f6e74726163740000006044820152606401610d92565b50816145a1565b6145a183838151156146515781518083602001fd5b806040517f08c379a0000000000000000000000000000000000000000000000000000000008152600401610d929190614d46565b604080516101e081019091528060008152602001600081526020016000815260200160008152602001600081526020016146bd6147ba565b8152602001600081526020016146d16147ba565b81526020016146de6147ba565b8152602001600081526020016000815260200160008152602001600063ffffffff1681526020016000600181111561473f577f4e487b7100000000000000000000000000000000000000000000000000000000600052602160045260246000fd5b81526020016147776040518060400160405280600073ffffffffffffffffffffffffffffffffffffffff168152602001600081525090565b905290565b82600681019282156147aa579160200282015b828111156147aa57825182559160200191906001019061478f565b506147b69291506147d8565b5090565b6040518060c001604052806006906020820280368337509192915050565b5b808211156147b657600081556001016147d9565b803573ffffffffffffffffffffffffffffffffffffffff8116811461481157600080fd5b919050565b60008083601f840112614827578182fd5b50813567ffffffffffffffff81111561483e578182fd5b6020830191508360208260051b850101111561241657600080fd5b60006020828403121561486a578081fd5b610d02826147ed565b600080600060608486031215614887578182fd5b614890846147ed565b925061489e602085016147ed565b91506148ac604085016147ed565b90509250925092565b600080604083850312156148c7578182fd5b6148d0836147ed565b946020939093013593505050565b600080600080608085870312156148f3578081fd5b6148fc856147ed565b966020860135965060408601359560600135945092505050565b60008060208385031215614928578182fd5b823567ffffffffffffffff81111561493e578283fd5b61494a85828601614816565b90969095509350505050565b600060208284031215614967578081fd5b8151610d02816151c3565b600060208284031215614983578081fd5b5035919050565b60006020828403121561499b578081fd5b5051919050565b6000806000806000606086880312156149b9578081fd5b85359450602086013567ffffffffffffffff808211156149d7578283fd5b6149e389838a01614816565b909650945060408801359150808211156149fb578283fd5b50614a0888828901614816565b969995985093965092949392505050565b600080600060408486031215614a2d578283fd5b83359250602084013567ffffffffffffffff811115614a4a578283fd5b614a5686828701614816565b9497909650939450505050565b60008060408385031215614a75578182fd5b823591506020830135614a87816151c3565b809150509250929050565b60008060408385031215614aa4578182fd5b50508035926020909101359150565b600080600060608486031215614ac7578081fd5b505081359360208301359350604090920135919050565b6000806000806000806000806101a0898b031215614afa578586fd5b88359750602089013596506040890135955061012089018a811115614b1d578384fd5b60608a01955035935061014089013560ff81168114614b3a578384fd5b9250614b496101608a016147ed565b915061018089013590509295985092959890939650565b600080600060608486031215614b74578081fd5b83359250602084013591506040840135614b8d816151d1565b809150509250925092565b600060208284031215614ba9578081fd5b8135610d02816151d1565b600060208284031215614bc5578081fd5b8151610d02816151d1565b6000815180845260208085019450808401835b83811015614c01578151151587529582019590820190600101614be3565b509495945050505050565b8060005b60068110156142e1578151845260209384019390910190600101614c10565b6000815180845260208085019450808401835b83811015614c0157815163ffffffff1687529582019590820190600101614c42565b60028110614c7457614c74615194565b9052565b60048110614c7457614c74615194565b60008251614c9a81846020870161508a565b9190910192915050565b6080808252855190820181905260009060209060a0840190828901845b82811015614cdd57815184529284019290840190600101614cc1565b50505083810382850152614cf18188614c2f565b9150508281036040840152614d068186614bd0565b91505082606083015295945050505050565b604081526000614d2b6040830185614c2f565b8281036020840152614d3d8185614bd0565b95945050505050565b6020815260008251806020840152614d6581604085016020870161508a565b601f017fffffffffffffffffffffffffffffffffffffffffffffffffffffffffffffffe0169190910160400192915050565b60006103e082019050614dab828451614c78565b6020830151602083015260408301516040830152606083015160608301526080830151608083015260a0830151614de560a0840182614c0c565b5060c0830151610160818185015260e08501519150610180614e0981860184614c0c565b6101008601519250614e1f610240860184614c0c565b6101208601516103008601526101408601516103208601529085015161034085015284015163ffffffff16610360840152506101a0830151614e65610380840182614c64565b506101c09290920151805173ffffffffffffffffffffffffffffffffffffffff166103a0830152602001516103c09091015290565b60008219821115614ead57614ead615136565b500190565b600063ffffffff808316818516808303821115614ed157614ed1615136565b01949350505050565b600082614ee957614ee9615165565b500490565b600181815b80851115614f2b578163ffffffff04821115614f1157614f11615136565b80851615614f1e57918102915b93841c9390800290614ef3565b509250929050565b600063ffffffff6145a1818516828516600082614f525750600161500b565b81614f5f5750600061500b565b8160018114614f755760028114614f7f57614fb0565b600191505061500b565b60ff841115614f9057614f90615136565b6001841b915063ffffffff821115614faa57614faa615136565b5061500b565b5060208310610133831016604e8410600b8410161715614fe7575081810a63ffffffff811115614fe257614fe2615136565b61500b565b614ff18383614eee565b8063ffffffff0482111561500757615007615136565b0290505b92915050565b6000817fffffffffffffffffffffffffffffffffffffffffffffffffffffffffffffffff048311821515161561504957615049615136565b500290565b60008282101561506057615060615136565b500390565b600063ffffffff8381169083168181101561508257615082615136565b039392505050565b60005b838110156150a557818101518382015260200161508d565b838111156142e15750506000910152565b60007fffffffffffffffffffffffffffffffffffffffffffffffffffffffffffffffff8214156150e8576150e8615136565b5060010190565b600063ffffffff8083168181141561510957615109615136565b6001019392505050565b600063ffffffff8084168061512a5761512a615165565b92169190910692915050565b7f4e487b7100000000000000000000000000000000000000000000000000000000600052601160045260246000fd5b7f4e487b7100000000000000000000000000000000000000000000000000000000600052601260045260246000fd5b7f4e487b7100000000000000000000000000000000000000000000000000000000600052602160045260246000fd5b80151581146129c157600080fd5b63ffffffff811681146129c157600080fdfea2646970667358221220c5ccfc598788ac4c08833dc7106d51682b1ab31c83ca304d269e9953dea2540664736f6c63430008040033",
  "linkReferences": {},
  "deployedLinkReferences": {}
}