{
  "_format": "hh-sol-artifact-1",
  "contractName": "KyotoSwapLottery",
  "sourceName": "contracts/KyotoSwapLottery.sol",
  "abi": [
    {
      "inputs": [
        {
          "internalType": "address",
          "name": "_KSWAPTokenAddress",
          "type": "address"
        },
        {
          "internalType": "address",
          "name": "_randomGeneratorAddress",
          "type": "address"
        }
      ],
      "stateMutability": "nonpayable",
      "type": "constructor"
    },
    {
      "anonymous": false,
      "inputs": [
        {
          "indexed": false,
          "internalType": "address",
          "name": "token",
          "type": "address"
        },
        {
          "indexed": false,
          "internalType": "uint256",
          "name": "amount",
          "type": "uint256"
        }
      ],
      "name": "AdminTokenRecovery",
      "type": "event"
    },
    {
      "anonymous": false,
      "inputs": [
        {
          "indexed": true,
          "internalType": "uint256",
          "name": "lotteryId",
          "type": "uint256"
        },
        {
          "indexed": false,
          "internalType": "uint256",
          "name": "firstTicketIdNextLottery",
          "type": "uint256"
        }
      ],
      "name": "LotteryClose",
      "type": "event"
    },
    {
      "anonymous": false,
      "inputs": [
        {
          "indexed": true,
          "internalType": "uint256",
          "name": "lotteryId",
          "type": "uint256"
        },
        {
          "indexed": false,
          "internalType": "uint256",
          "name": "injectedAmount",
          "type": "uint256"
        }
      ],
      "name": "LotteryInjection",
      "type": "event"
    },
    {
      "anonymous": false,
      "inputs": [
        {
          "indexed": true,
          "internalType": "uint256",
          "name": "lotteryId",
          "type": "uint256"
        },
        {
          "indexed": false,
          "internalType": "uint256",
          "name": "finalNumber",
          "type": "uint256"
        },
        {
          "indexed": false,
          "internalType": "uint256",
          "name": "countWinningTickets",
          "type": "uint256"
        }
      ],
      "name": "LotteryNumberDrawn",
      "type": "event"
    },
    {
      "anonymous": false,
      "inputs": [
        {
          "indexed": true,
          "internalType": "uint256",
          "name": "lotteryId",
          "type": "uint256"
        },
        {
          "indexed": false,
          "internalType": "uint256",
          "name": "startTime",
          "type": "uint256"
        },
        {
          "indexed": false,
          "internalType": "uint256",
          "name": "endTime",
          "type": "uint256"
        },
        {
          "indexed": false,
          "internalType": "uint256",
          "name": "priceTicketInKSwap",
          "type": "uint256"
        },
        {
          "indexed": false,
          "internalType": "uint256",
          "name": "firstTicketId",
          "type": "uint256"
        },
        {
          "indexed": false,
          "internalType": "uint256",
          "name": "injectedAmount",
          "type": "uint256"
        }
      ],
      "name": "LotteryOpen",
      "type": "event"
    },
    {
      "anonymous": false,
      "inputs": [
        {
          "indexed": false,
          "internalType": "address",
          "name": "operator",
          "type": "address"
        },
        {
          "indexed": false,
          "internalType": "address",
          "name": "treasury",
          "type": "address"
        },
        {
          "indexed": false,
          "internalType": "address",
          "name": "injector",
          "type": "address"
        }
      ],
      "name": "NewOperatorAndTreasuryAndInjectorAddresses",
      "type": "event"
    },
    {
      "anonymous": false,
      "inputs": [
        {
          "indexed": true,
          "internalType": "address",
          "name": "randomGenerator",
          "type": "address"
        }
      ],
      "name": "NewRandomGenerator",
      "type": "event"
    },
    {
      "anonymous": false,
      "inputs": [
        {
          "indexed": true,
          "internalType": "address",
          "name": "previousOwner",
          "type": "address"
        },
        {
          "indexed": true,
          "internalType": "address",
          "name": "newOwner",
          "type": "address"
        }
      ],
      "name": "OwnershipTransferred",
      "type": "event"
    },
    {
      "anonymous": false,
      "inputs": [
        {
          "indexed": true,
          "internalType": "address",
          "name": "claimer",
          "type": "address"
        },
        {
          "indexed": false,
          "internalType": "uint256",
          "name": "amount",
          "type": "uint256"
        },
        {
          "indexed": true,
          "internalType": "uint256",
          "name": "lotteryId",
          "type": "uint256"
        },
        {
          "indexed": false,
          "internalType": "uint256",
          "name": "numberTickets",
          "type": "uint256"
        }
      ],
      "name": "TicketsClaim",
      "type": "event"
    },
    {
      "anonymous": false,
      "inputs": [
        {
          "indexed": true,
          "internalType": "address",
          "name": "buyer",
          "type": "address"
        },
        {
          "indexed": true,
          "internalType": "uint256",
          "name": "lotteryId",
          "type": "uint256"
        },
        {
          "indexed": false,
          "internalType": "uint256",
          "name": "numberTickets",
          "type": "uint256"
        }
      ],
      "name": "TicketsPurchase",
      "type": "event"
    },
    {
      "inputs": [],
      "name": "MAX_LENGTH_LOTTERY",
      "outputs": [
        {
          "internalType": "uint256",
          "name": "",
          "type": "uint256"
        }
      ],
      "stateMutability": "view",
      "type": "function"
    },
    {
      "inputs": [],
      "name": "MAX_TREASURY_FEE",
      "outputs": [
        {
          "internalType": "uint256",
          "name": "",
          "type": "uint256"
        }
      ],
      "stateMutability": "view",
      "type": "function"
    },
    {
      "inputs": [],
      "name": "MIN_DISCOUNT_DIVISOR",
      "outputs": [
        {
          "internalType": "uint256",
          "name": "",
          "type": "uint256"
        }
      ],
      "stateMutability": "view",
      "type": "function"
    },
    {
      "inputs": [],
      "name": "MIN_LENGTH_LOTTERY",
      "outputs": [
        {
          "internalType": "uint256",
          "name": "",
          "type": "uint256"
        }
      ],
      "stateMutability": "view",
      "type": "function"
    },
    {
      "inputs": [
        {
          "internalType": "uint256",
          "name": "_lotteryId",
          "type": "uint256"
        },
        {
          "internalType": "uint32[]",
          "name": "_ticketNumbers",
          "type": "uint32[]"
        }
      ],
      "name": "buyTickets",
      "outputs": [],
      "stateMutability": "nonpayable",
      "type": "function"
    },
    {
      "inputs": [
        {
          "internalType": "uint256",
          "name": "_discountDivisor",
          "type": "uint256"
        },
        {
          "internalType": "uint256",
          "name": "_priceTicket",
          "type": "uint256"
        },
        {
          "internalType": "uint256",
          "name": "_numberTickets",
          "type": "uint256"
        }
      ],
      "name": "calculateTotalPriceForBulkTickets",
      "outputs": [
        {
          "internalType": "uint256",
          "name": "",
          "type": "uint256"
        }
      ],
      "stateMutability": "pure",
      "type": "function"
    },
    {
      "inputs": [
        {
          "internalType": "address",
          "name": "_randomGeneratorAddress",
          "type": "address"
        }
      ],
      "name": "changeRandomGenerator",
      "outputs": [],
      "stateMutability": "nonpayable",
      "type": "function"
    },
    {
      "inputs": [
        {
          "internalType": "uint256",
          "name": "_lotteryId",
          "type": "uint256"
        },
        {
          "internalType": "uint256[]",
          "name": "_ticketIds",
          "type": "uint256[]"
        },
        {
          "internalType": "uint32[]",
          "name": "_brackets",
          "type": "uint32[]"
        }
      ],
      "name": "claimTickets",
      "outputs": [],
      "stateMutability": "nonpayable",
      "type": "function"
    },
    {
      "inputs": [
        {
          "internalType": "uint256",
          "name": "_lotteryId",
          "type": "uint256"
        }
      ],
      "name": "closeLottery",
      "outputs": [],
      "stateMutability": "nonpayable",
      "type": "function"
    },
    {
      "inputs": [],
      "name": "currentLotteryId",
      "outputs": [
        {
          "internalType": "uint256",
          "name": "",
          "type": "uint256"
        }
      ],
      "stateMutability": "view",
      "type": "function"
    },
    {
      "inputs": [],
      "name": "currentTicketId",
      "outputs": [
        {
          "internalType": "uint256",
          "name": "",
          "type": "uint256"
        }
      ],
      "stateMutability": "view",
      "type": "function"
    },
    {
      "inputs": [
        {
          "internalType": "uint256",
          "name": "_lotteryId",
          "type": "uint256"
        },
        {
          "internalType": "bool",
          "name": "_autoInjection",
          "type": "bool"
        }
      ],
      "name": "drawFinalNumberAndMakeLotteryClaimable",
      "outputs": [],
      "stateMutability": "nonpayable",
      "type": "function"
    },
    {
      "inputs": [
        {
          "internalType": "uint256",
          "name": "_lotteryId",
          "type": "uint256"
        },
        {
          "internalType": "uint256",
          "name": "_amount",
          "type": "uint256"
        }
      ],
      "name": "injectFunds",
      "outputs": [],
      "stateMutability": "nonpayable",
      "type": "function"
    },
    {
      "inputs": [],
      "name": "injectorAddress",
      "outputs": [
        {
          "internalType": "address",
          "name": "",
          "type": "address"
        }
      ],
      "stateMutability": "view",
      "type": "function"
    },
    {
      "inputs": [],
      "name": "kSwapToken",
      "outputs": [
        {
          "internalType": "contract IERC20",
          "name": "",
          "type": "address"
        }
      ],
      "stateMutability": "view",
      "type": "function"
    },
    {
      "inputs": [],
      "name": "maxNumberTicketsPerBuyOrClaim",
      "outputs": [
        {
          "internalType": "uint256",
          "name": "",
          "type": "uint256"
        }
      ],
      "stateMutability": "view",
      "type": "function"
    },
    {
      "inputs": [],
      "name": "maxPriceTicketInKSwap",
      "outputs": [
        {
          "internalType": "uint256",
          "name": "",
          "type": "uint256"
        }
      ],
      "stateMutability": "view",
      "type": "function"
    },
    {
      "inputs": [],
      "name": "minPriceTicketInKSwap",
      "outputs": [
        {
          "internalType": "uint256",
          "name": "",
          "type": "uint256"
        }
      ],
      "stateMutability": "view",
      "type": "function"
    },
    {
      "inputs": [],
      "name": "operatorAddress",
      "outputs": [
        {
          "internalType": "address",
          "name": "",
          "type": "address"
        }
      ],
      "stateMutability": "view",
      "type": "function"
    },
    {
      "inputs": [],
      "name": "owner",
      "outputs": [
        {
          "internalType": "address",
          "name": "",
          "type": "address"
        }
      ],
      "stateMutability": "view",
      "type": "function"
    },
    {
      "inputs": [],
      "name": "pendingInjectionNextLottery",
      "outputs": [
        {
          "internalType": "uint256",
          "name": "",
          "type": "uint256"
        }
      ],
      "stateMutability": "view",
      "type": "function"
    },
    {
      "inputs": [],
      "name": "randomGenerator",
      "outputs": [
        {
          "internalType": "contract IRandomNumberGenerator",
          "name": "",
          "type": "address"
        }
      ],
      "stateMutability": "view",
      "type": "function"
    },
    {
      "inputs": [
        {
          "internalType": "address",
          "name": "_tokenAddress",
          "type": "address"
        },
        {
          "internalType": "uint256",
          "name": "_tokenAmount",
          "type": "uint256"
        }
      ],
      "name": "recoverWrongTokens",
      "outputs": [],
      "stateMutability": "nonpayable",
      "type": "function"
    },
    {
      "inputs": [],
      "name": "renounceOwnership",
      "outputs": [],
      "stateMutability": "nonpayable",
      "type": "function"
    },
    {
      "inputs": [
        {
          "internalType": "uint256",
          "name": "_maxNumberTicketsPerBuy",
          "type": "uint256"
        }
      ],
      "name": "setMaxNumberTicketsPerBuy",
      "outputs": [],
      "stateMutability": "nonpayable",
      "type": "function"
    },
    {
      "inputs": [
        {
          "internalType": "uint256",
          "name": "_minPriceTicketInCake",
          "type": "uint256"
        },
        {
          "internalType": "uint256",
          "name": "_maxPriceTicketInCake",
          "type": "uint256"
        }
      ],
      "name": "setMinAndMaxTicketPriceInCake",
      "outputs": [],
      "stateMutability": "nonpayable",
      "type": "function"
    },
    {
      "inputs": [
        {
          "internalType": "address",
          "name": "_operatorAddress",
          "type": "address"
        },
        {
          "internalType": "address",
          "name": "_treasuryAddress",
          "type": "address"
        },
        {
          "internalType": "address",
          "name": "_injectorAddress",
          "type": "address"
        }
      ],
      "name": "setOperatorAndTreasuryAndInjectorAddresses",
      "outputs": [],
      "stateMutability": "nonpayable",
      "type": "function"
    },
    {
      "inputs": [
        {
          "internalType": "uint256",
          "name": "_endTime",
          "type": "uint256"
        },
        {
          "internalType": "uint256",
          "name": "_priceTicketInKSwap",
          "type": "uint256"
        },
        {
          "internalType": "uint256",
          "name": "_discountDivisor",
          "type": "uint256"
        },
        {
          "internalType": "uint256[6]",
          "name": "_rewardsBreakdown",
          "type": "uint256[6]"
        },
        {
          "internalType": "uint256",
          "name": "_treasuryFee",
          "type": "uint256"
        },
        {
          "internalType": "uint8",
          "name": "_rewardType",
          "type": "uint8"
        },
        {
          "internalType": "address",
          "name": "_contractAddr",
          "type": "address"
        },
        {
          "internalType": "uint256",
          "name": "_rewardQuantity",
          "type": "uint256"
        }
      ],
      "name": "startLottery",
      "outputs": [],
      "stateMutability": "nonpayable",
      "type": "function"
    },
    {
      "inputs": [
        {
          "internalType": "address",
          "name": "newOwner",
          "type": "address"
        }
      ],
      "name": "transferOwnership",
      "outputs": [],
      "stateMutability": "nonpayable",
      "type": "function"
    },
    {
      "inputs": [],
      "name": "treasuryAddress",
      "outputs": [
        {
          "internalType": "address",
          "name": "",
          "type": "address"
        }
      ],
      "stateMutability": "view",
      "type": "function"
    },
    {
      "inputs": [],
      "name": "viewCurrentLotteryId",
      "outputs": [
        {
          "internalType": "uint256",
          "name": "",
          "type": "uint256"
        }
      ],
      "stateMutability": "view",
      "type": "function"
    },
    {
      "inputs": [
        {
          "internalType": "uint256",
          "name": "_lotteryId",
          "type": "uint256"
        }
      ],
      "name": "viewLottery",
      "outputs": [
        {
          "components": [
            {
              "internalType": "enum KyotoSwapLottery.Status",
              "name": "status",
              "type": "uint8"
            },
            {
              "internalType": "uint256",
              "name": "startTime",
              "type": "uint256"
            },
            {
              "internalType": "uint256",
              "name": "endTime",
              "type": "uint256"
            },
            {
              "internalType": "uint256",
              "name": "priceTicketInKSwap",
              "type": "uint256"
            },
            {
              "internalType": "uint256",
              "name": "discountDivisor",
              "type": "uint256"
            },
            {
              "internalType": "uint256[6]",
              "name": "rewardsBreakdown",
              "type": "uint256[6]"
            },
            {
              "internalType": "uint256",
              "name": "treasuryFee",
              "type": "uint256"
            },
            {
              "internalType": "uint256[6]",
              "name": "cakePerBracket",
              "type": "uint256[6]"
            },
            {
              "internalType": "uint256[6]",
              "name": "countWinnersPerBracket",
              "type": "uint256[6]"
            },
            {
              "internalType": "uint256",
              "name": "firstTicketId",
              "type": "uint256"
            },
            {
              "internalType": "uint256",
              "name": "firstTicketIdNextLottery",
              "type": "uint256"
            },
            {
              "internalType": "uint256",
              "name": "amountCollectedInCake",
              "type": "uint256"
            },
            {
              "internalType": "uint32",
              "name": "finalNumber",
              "type": "uint32"
            },
            {
              "internalType": "enum KyotoSwapLottery.RewardType",
              "name": "rewardType",
              "type": "uint8"
            },
            {
              "components": [
                {
                  "internalType": "address",
                  "name": "contractAddr",
                  "type": "address"
                },
                {
                  "internalType": "uint256",
                  "name": "quantity",
                  "type": "uint256"
                }
              ],
              "internalType": "struct KyotoSwapLottery.Reward",
              "name": "reward",
              "type": "tuple"
            }
          ],
          "internalType": "struct KyotoSwapLottery.Lottery",
          "name": "",
          "type": "tuple"
        }
      ],
      "stateMutability": "view",
      "type": "function"
    },
    {
      "inputs": [
        {
          "internalType": "uint256[]",
          "name": "_ticketIds",
          "type": "uint256[]"
        }
      ],
      "name": "viewNumbersAndStatusesForTicketIds",
      "outputs": [
        {
          "internalType": "uint32[]",
          "name": "",
          "type": "uint32[]"
        },
        {
          "internalType": "bool[]",
          "name": "",
          "type": "bool[]"
        }
      ],
      "stateMutability": "view",
      "type": "function"
    },
    {
      "inputs": [
        {
          "internalType": "uint256",
          "name": "_lotteryId",
          "type": "uint256"
        },
        {
          "internalType": "uint256",
          "name": "_ticketId",
          "type": "uint256"
        },
        {
          "internalType": "uint32",
          "name": "_bracket",
          "type": "uint32"
        }
      ],
      "name": "viewRewardsForTicketId",
      "outputs": [
        {
          "internalType": "uint256",
          "name": "",
          "type": "uint256"
        }
      ],
      "stateMutability": "view",
      "type": "function"
    },
    {
      "inputs": [
        {
          "internalType": "address",
          "name": "_user",
          "type": "address"
        },
        {
          "internalType": "uint256",
          "name": "_lotteryId",
          "type": "uint256"
        },
        {
          "internalType": "uint256",
          "name": "_cursor",
          "type": "uint256"
        },
        {
          "internalType": "uint256",
          "name": "_size",
          "type": "uint256"
        }
      ],
      "name": "viewUserInfoForLotteryId",
      "outputs": [
        {
          "internalType": "uint256[]",
          "name": "",
          "type": "uint256[]"
        },
        {
          "internalType": "uint32[]",
          "name": "",
          "type": "uint32[]"
        },
        {
          "internalType": "bool[]",
          "name": "",
          "type": "bool[]"
        },
        {
          "internalType": "uint256",
          "name": "",
          "type": "uint256"
        }
      ],
      "stateMutability": "view",
      "type": "function"
    }
  ],
  "bytecode": "0x608060405260646007556802b5e3af16b18800006008556611c37937e080006009553480156200002e57600080fd5b506040516200538b3803806200538b833981016040819052620000519162000219565b60016000556200006133620001aa565b600b80546001600160a01b039384166001600160a01b0319918216178255600c805493909416921691909117909155600f6020527ff4803e074bd026baaf6ed2e288c9515f68c72fb7216eebdd7cae1718a53ec375805463ffffffff199081166001179091557f169f97de0d9a84d840042b17d3c6b9638b3d6fd9024c9eb0c7a306a17b49f88f805482169092179091557fa74ba3945261e09fde15ba3db55005b205e61eeb4ad811ac0faa2b315bffeead80548216606f1790557f45f76dafbbad695564362934e24d72eedc57f9fc1a65f39bca62176cc8296828805482166104571790557f367ccd2d0ac16bf7110a5dffe0801fdc9452a95a1adb7e1a12fe97dd3e9a4edd80548216612b6717905560056000527f6bda57492eba051cb4a12a1e19df47c9755d78165341d4009b1d09b3f361620480549091166201b20717905562000250565b600180546001600160a01b038381166001600160a01b0319831681179093556040519116919082907f8be0079c531659141344cd1fd0a4f28419497f9722a3daafe3b4186f6b6457e090600090a35050565b80516001600160a01b03811681146200021457600080fd5b919050565b600080604083850312156200022c578182fd5b6200023783620001fc565b91506200024760208401620001fc565b90509250929050565b61512b80620002606000396000f3fe608060405234801561001057600080fd5b50600436106102415760003560e01c806388303dbd11610145578063c5f956af116100bd578063db19da0d1161008c578063e9c51a0511610071578063e9c51a05146104df578063f2b3c809146104ff578063f2fde38b1461050857600080fd5b8063db19da0d146104b5578063dcbad90d146104bf57600080fd5b8063c5f956af1461045c578063c914914f1461047c578063da4ca0391461048f578063da7429f8146104a257600080fd5b806398359fa1116101145780639d8ca531116100f95780639d8ca53114610423578063c38de53914610436578063c4937ab91461044957600080fd5b806398359fa1146103f05780639c3846531461040357600080fd5b806388303dbd146103955780638d3653b6146103a85780638da5cb5b146103b15780638fc3539a146103cf57600080fd5b8063471aeab4116101d85780636be4097c116101a757806378fe84941161018c57806378fe8494146103715780637cb583bd1461038457806380a061601461038d57600080fd5b80636be4097c14610360578063715018a61461036957600080fd5b8063471aeab4146103285780635cd599311461033b578063686465b8146103445780636b8737881461034d57600080fd5b80631fe86c6b116102145780631fe86c6b146102d75780632423807a146102e05780632e530cae146103005780633f138d4b1461031357600080fd5b806305531eeb1461024657806307fb5a9c14610272578063127effb21461028957806312a9769d146102ce575b600080fd5b6102596102543660046147f0565b61051b565b6040516102699493929190614bb6565b60405180910390f35b61027b61371481565b604051908152602001610269565b6003546102a99073ffffffffffffffffffffffffffffffffffffffff1681565b60405173ffffffffffffffffffffffffffffffffffffffff9091168152602001610269565b61027b600a5481565b61027b60075481565b6102f36102ee366004614884565b6109ce565b6040516102699190614ca9565b61027b61030e366004614a72565b610c37565b6103266103213660046147c7565b610ce5565b005b6103266103363660046149a4565b610deb565b61027b60095481565b61027b60065481565b61032661035b366004614884565b610fc5565b61027b60055481565b610326611039565b61032661037f3660046149f0565b61104d565b61027b61012c81565b60055461027b565b6103266103a336600461492b565b611996565b61027b60085481565b60015473ffffffffffffffffffffffffffffffffffffffff166102a9565b6103e26103dd366004614828565b6120be565b604051610269929190614c2a565b6103266103fe36600461476b565b612396565b6002546102a99073ffffffffffffffffffffffffffffffffffffffff1681565b610326610431366004614884565b612623565b610326610444366004614975565b61293d565b61027b6104573660046149c5565b613231565b6004546102a99073ffffffffffffffffffffffffffffffffffffffff1681565b61032661048a3660046148b4565b613311565b61032661049d366004614785565b613bb5565b6103266104b03660046149a4565b613ddd565b61027b6205472c81565b600c546102a99073ffffffffffffffffffffffffffffffffffffffff1681565b600b546102a99073ffffffffffffffffffffffffffffffffffffffff1681565b61027b610bb881565b61032661051636600461476b565b613e5a565b73ffffffffffffffffffffffffffffffffffffffff84166000908152601160209081526040808320868452909152812054606091829182919085906105608882614f60565b821115610574576105718882614f60565b91505b60008267ffffffffffffffff8111156105b6577f4e487b7100000000000000000000000000000000000000000000000000000000600052604160045260246000fd5b6040519080825280602002602001820160405280156105df578160200160208202803683370190505b50905060008367ffffffffffffffff811115610624577f4e487b7100000000000000000000000000000000000000000000000000000000600052604160045260246000fd5b60405190808252806020026020018201604052801561064d578160200160208202803683370190505b50905060008467ffffffffffffffff811115610692577f4e487b7100000000000000000000000000000000000000000000000000000000600052604160045260246000fd5b6040519080825280602002602001820160405280156106bb578160200160208202803683370190505b50905060005b858110156109a857601160008f73ffffffffffffffffffffffffffffffffffffffff1673ffffffffffffffffffffffffffffffffffffffff16815260200190815260200160002060008e81526020019081526020016000208c826107259190614dac565b8154811061075c577f4e487b7100000000000000000000000000000000000000000000000000000000600052603260045260246000fd5b90600052602060002001548482815181106107a0577f4e487b7100000000000000000000000000000000000000000000000000000000600052603260045260246000fd5b602002602001018181525050600e60008583815181106107e9577f4e487b7100000000000000000000000000000000000000000000000000000000600052603260045260246000fd5b6020026020010151815260200190815260200160002060000160009054906101000a900463ffffffff1683828151811061084c577f4e487b7100000000000000000000000000000000000000000000000000000000600052603260045260246000fd5b602002602001019063ffffffff16908163ffffffff1681525050600073ffffffffffffffffffffffffffffffffffffffff16600e60008684815181106108bb577f4e487b7100000000000000000000000000000000000000000000000000000000600052603260045260246000fd5b602090810291909101810151825281019190915260400160002054640100000000900473ffffffffffffffffffffffffffffffffffffffff16141561094a576001828281518110610935577f4e487b7100000000000000000000000000000000000000000000000000000000600052603260045260246000fd5b91151560209283029190910190910152610996565b6000828281518110610985577f4e487b7100000000000000000000000000000000000000000000000000000000600052603260045260246000fd5b911515602092830291909101909101525b806109a081614fc8565b9150506106c1565b508282826109b6888f614dac565b98509850985098505050505050945094509450949050565b6109d6614597565b6000828152600d60205260409081902081516101e081019092528054829060ff166003811115610a2f577f4e487b7100000000000000000000000000000000000000000000000000000000600052602160045260246000fd5b6003811115610a67577f4e487b7100000000000000000000000000000000000000000000000000000000600052602160045260246000fd5b81526001820154602082015260028201546040808301919091526003830154606083015260048301546080830152805160c081019182905260a09092019190600584019060069082845b815481526020019060010190808311610ab1575050509183525050600b82015460208201526040805160c081018252910190600c830160068282826020028201915b815481526020019060010190808311610af35750505091835250506040805160c081019182905260209092019190601284019060069082845b815481526020019060010190808311610b2c5750505091835250506018820154602082015260198201546040820152601a8201546060820152601b82015463ffffffff8116608083015260a090910190640100000000900460ff166001811115610bbf577f4e487b7100000000000000000000000000000000000000000000000000000000600052602160045260246000fd5b6001811115610bf7577f4e487b7100000000000000000000000000000000000000000000000000000000600052602160045260246000fd5b815260408051808201909152601c83015473ffffffffffffffffffffffffffffffffffffffff168152601d90920154602083810191909152015292915050565b600060036000858152600d602052604090205460ff166003811115610c85577f4e487b7100000000000000000000000000000000000000000000000000000000600052602160045260246000fd5b14610c9257506000610cde565b6000848152600d602052604090206019015483118015610cc357506000848152600d60205260409020601801548311155b15610cd057506000610cde565b610cdb848484613f0e565b90505b9392505050565b610ced614040565b600b5473ffffffffffffffffffffffffffffffffffffffff83811691161415610d77576040517f08c379a000000000000000000000000000000000000000000000000000000000815260206004820152601560248201527f43616e6e6f74206265204b5357415020746f6b656e000000000000000000000060448201526064015b60405180910390fd5b610d9873ffffffffffffffffffffffffffffffffffffffff831633836140c1565b6040805173ffffffffffffffffffffffffffffffffffffffff84168152602081018390527f74545154aac348a3eac92596bd1971957ca94795f4e954ec5f613b55fab78129910160405180910390a15050565b60015473ffffffffffffffffffffffffffffffffffffffff16331480610e28575060025473ffffffffffffffffffffffffffffffffffffffff1633145b610e8e576040517f08c379a000000000000000000000000000000000000000000000000000000000815260206004820152601560248201527f4e6f74206f776e6572206f7220696e6a6563746f7200000000000000000000006044820152606401610d6e565b60016000838152600d602052604090205460ff166003811115610eda577f4e487b7100000000000000000000000000000000000000000000000000000000600052602160045260246000fd5b14610f41576040517f08c379a000000000000000000000000000000000000000000000000000000000815260206004820152601060248201527f4c6f7474657279206e6f74206f70656e000000000000000000000000000000006044820152606401610d6e565b600b54610f669073ffffffffffffffffffffffffffffffffffffffff16333084614195565b6000828152600d60205260408120601a018054839290610f87908490614dac565b909155505060405181815282907f1bbd659dd628a25f7ff2eabb69c74a56939c539728282275c1c9c1a2d3e340499060200160405180910390a25050565b610fcd614040565b80611034576040517f08c379a000000000000000000000000000000000000000000000000000000000815260206004820152600b60248201527f4d757374206265203e20300000000000000000000000000000000000000000006044820152606401610d6e565b600755565b611041614040565b61104b60006141f9565b565b60035473ffffffffffffffffffffffffffffffffffffffff1633146110ce576040517f08c379a000000000000000000000000000000000000000000000000000000000815260206004820152600c60248201527f4e6f74206f70657261746f7200000000000000000000000000000000000000006044820152606401610d6e565b6005541580611129575060036005546000908152600d602052604090205460ff166003811115611127577f4e487b7100000000000000000000000000000000000000000000000000000000600052602160045260246000fd5b145b61118f576040517f08c379a000000000000000000000000000000000000000000000000000000000815260206004820152601960248201527f4e6f742074696d6520746f207374617274206c6f7474657279000000000000006044820152606401610d6e565b61371461119c428a614f60565b1180156111b457506205472c6111b2428a614f60565b105b61121a576040517f08c379a000000000000000000000000000000000000000000000000000000000815260206004820152601f60248201527f4c6f7474657279206c656e677468206f757473696465206f662072616e6765006044820152606401610d6e565b600954871015801561122e57506008548711155b611294576040517f08c379a000000000000000000000000000000000000000000000000000000000815260206004820152601160248201527f4f757473696465206f66206c696d6974730000000000000000000000000000006044820152606401610d6e565b61012c861015611300576040517f08c379a000000000000000000000000000000000000000000000000000000000815260206004820152601860248201527f446973636f756e742064697669736f7220746f6f206c6f7700000000000000006044820152606401610d6e565b610bb884111561136c576040517f08c379a000000000000000000000000000000000000000000000000000000000815260206004820152601560248201527f54726561737572792066656520746f6f206869676800000000000000000000006044820152606401610d6e565b60a085013560808601356060870135604088013561138f60208a01358a35614dac565b6113999190614dac565b6113a39190614dac565b6113ad9190614dac565b6113b79190614dac565b61271014611421576040517f08c379a000000000000000000000000000000000000000000000000000000000815260206004820152601860248201527f52657761726473206d75737420657175616c20313030303000000000000000006044820152606401610d6e565b6005805490600061143183614fc8565b91905055508260ff166001811115611472577f4e487b7100000000000000000000000000000000000000000000000000000000600052602160045260246000fd5b60018111156114aa577f4e487b7100000000000000000000000000000000000000000000000000000000600052602160045260246000fd5b60011415611574576114d473ffffffffffffffffffffffffffffffffffffffff8316333084614195565b6040517f70a0823100000000000000000000000000000000000000000000000000000000815230600482015273ffffffffffffffffffffffffffffffffffffffff8316906370a082319060240160206040518083038186803b15801561153957600080fd5b505afa15801561154d573d6000803e3d6000fd5b505050506040513d601f19601f82011682018060405250810190611571919061489c565b90505b604080516101e081019091528060018152602001428152602001898152602001888152602001878152602001866006806020026040519081016040528092919082600660200280828437600081840152601f19601f82011690508083019250505050505081526020018581526020016040518060c001604052806000815260200160008152602001600081526020016000815260200160008152602001600081525081526020016040518060c0016040528060008152602001600081526020016000815260200160008152602001600081526020016000815250815260200160065481526020016006548152602001600a548152602001600063ffffffff1681526020018460ff1660018111156116b4577f4e487b7100000000000000000000000000000000000000000000000000000000600052602160045260246000fd5b60018111156116ec577f4e487b7100000000000000000000000000000000000000000000000000000000600052602160045260246000fd5b815260408051808201825273ffffffffffffffffffffffffffffffffffffffff861681526020818101869052928301526005546000908152600d90925290208151815482907fffffffffffffffffffffffffffffffffffffffffffffffffffffffffffffff0016600183600381111561178e577f4e487b7100000000000000000000000000000000000000000000000000000000600052602160045260246000fd5b02179055506020820151600182015560408201516002820155606082015160038201556080820151600482015560a08201516117d0906005830190600661468e565b5060c0820151600b82015560e08201516117f090600c830190600661468e565b50610100820151611807906012830190600661468e565b5061012082015160188201556101408201516019820155610160820151601a820155610180820151601b8201805463ffffffff9092167fffffffffffffffffffffffffffffffffffffffffffffffffffffffff000000008316811782556101a0850151927fffffffffffffffffffffffffffffffffffffffffffffffffffffff000000000016176401000000008360018111156118cd577f4e487b7100000000000000000000000000000000000000000000000000000000600052602160045260246000fd5b02179055506101c091909101518051601c830180547fffffffffffffffffffffffff00000000000000000000000000000000000000001673ffffffffffffffffffffffffffffffffffffffff909216919091179055602090810151601d90920191909155600554600654600a54604080514281529485018d905284018b905260608401919091526080830152907f367e70f8c0e0c0a6504d92172bda155c02022d532fc85b5d66a9c49e31c8bc779060a00160405180910390a250506000600a55505050505050565b333b156119ff576040517f08c379a000000000000000000000000000000000000000000000000000000000815260206004820152601460248201527f436f6e7472616374206e6f7420616c6c6f7765640000000000000000000000006044820152606401610d6e565b333214611a68576040517f08c379a000000000000000000000000000000000000000000000000000000000815260206004820152601a60248201527f50726f787920636f6e7472616374206e6f7420616c6c6f7765640000000000006044820152606401610d6e565b611a70614270565b80611ad7576040517f08c379a000000000000000000000000000000000000000000000000000000000815260206004820152601360248201527f4e6f207469636b657420737065636966696564000000000000000000000000006044820152606401610d6e565b600754811115611b43576040517f08c379a000000000000000000000000000000000000000000000000000000000815260206004820152601060248201527f546f6f206d616e79207469636b657473000000000000000000000000000000006044820152606401610d6e565b60016000848152600d602052604090205460ff166003811115611b8f577f4e487b7100000000000000000000000000000000000000000000000000000000600052602160045260246000fd5b14611bf6576040517f08c379a000000000000000000000000000000000000000000000000000000000815260206004820152601360248201527f4c6f7474657279206973206e6f74206f70656e000000000000000000000000006044820152606401610d6e565b6000838152600d60205260409020600201544210611c70576040517f08c379a000000000000000000000000000000000000000000000000000000000815260206004820152600f60248201527f4c6f7474657279206973206f76657200000000000000000000000000000000006044820152606401610d6e565b6000838152600d602052604081206004810154600390910154611c949190846142e4565b600b54909150611cbc9073ffffffffffffffffffffffffffffffffffffffff16333084614195565b6000848152600d60205260408120601a018054839290611cdd908490614dac565b90915550600090505b82811015612076576000848483818110611d29577f4e487b7100000000000000000000000000000000000000000000000000000000600052603260045260246000fd5b9050602002016020810190611d3e9190614aaa565b9050620f42408163ffffffff1610158015611d625750621e847f8163ffffffff1611155b611dc8576040517f08c379a000000000000000000000000000000000000000000000000000000000815260206004820152600d60248201527f4f7574736964652072616e6765000000000000000000000000000000000000006044820152606401610d6e565b600086815260106020526040812090611de2600a84615025565b611ded906001614dc4565b63ffffffff16815260208101919091526040016000908120805491611e1183614fc8565b9091555050600086815260106020526040812090611e30606484615025565b611e3b90600b614dc4565b63ffffffff16815260208101919091526040016000908120805491611e5f83614fc8565b9091555050600086815260106020526040812090611e7f6103e884615025565b611e8a90606f614dc4565b63ffffffff16815260208101919091526040016000908120805491611eae83614fc8565b9091555050600086815260106020526040812090611ece61271084615025565b611eda90610457614dc4565b63ffffffff16815260208101919091526040016000908120805491611efe83614fc8565b9091555050600086815260106020526040812090611f1f620186a084615025565b611f2b90612b67614dc4565b63ffffffff16815260208101919091526040016000908120805491611f4f83614fc8565b9091555050600086815260106020526040812090611f70620f424084615025565b611f7d906201b207614dc4565b63ffffffff16815260208101919091526040016000908120805491611fa183614fc8565b90915550503360008181526011602090815260408083208a84528252808320600680548254600181018455928652848620909201919091558151808301835263ffffffff808816825281850196875282548652600e90945291842091518254955173ffffffffffffffffffffffffffffffffffffffff16640100000000027fffffffffffffffff000000000000000000000000000000000000000000000000909616931692909217939093179092558154919061205d83614fc8565b919050555050808061206e90614fc8565b915050611ce6565b50604051828152849033907fd7d247b583de1023852eef87b48f54354dbec771d01bc2cc49e96094efc322b99060200160405180910390a3506120b96001600055565b505050565b6060808260008167ffffffffffffffff811115612104577f4e487b7100000000000000000000000000000000000000000000000000000000600052604160045260246000fd5b60405190808252806020026020018201604052801561212d578160200160208202803683370190505b50905060008267ffffffffffffffff811115612172577f4e487b7100000000000000000000000000000000000000000000000000000000600052604160045260246000fd5b60405190808252806020026020018201604052801561219b578160200160208202803683370190505b50905060005b8381101561238757600e60008989848181106121e6577f4e487b7100000000000000000000000000000000000000000000000000000000600052603260045260246000fd5b90506020020135815260200190815260200160002060000160009054906101000a900463ffffffff16838281518110612248577f4e487b7100000000000000000000000000000000000000000000000000000000600052603260045260246000fd5b63ffffffff909216602092830291909101909101526000600e818a8a8581811061229b577f4e487b7100000000000000000000000000000000000000000000000000000000600052603260045260246000fd5b6020908102929092013583525081019190915260400160002054640100000000900473ffffffffffffffffffffffffffffffffffffffff161415612329576001828281518110612314577f4e487b7100000000000000000000000000000000000000000000000000000000600052603260045260246000fd5b91151560209283029190910190910152612375565b6000828281518110612364577f4e487b7100000000000000000000000000000000000000000000000000000000600052603260045260246000fd5b911515602092830291909101909101525b8061237f81614fc8565b9150506121a1565b509093509150505b9250929050565b61239e614040565b60055415806123f9575060036005546000908152600d602052604090205460ff1660038111156123f7577f4e487b7100000000000000000000000000000000000000000000000000000000600052602160045260246000fd5b145b61245f576040517f08c379a000000000000000000000000000000000000000000000000000000000815260206004820152601860248201527f4c6f7474657279206e6f7420696e20636c61696d61626c6500000000000000006044820152606401610d6e565b8073ffffffffffffffffffffffffffffffffffffffff1663b37217a460055460065460405160200161249b929190918252602082015260400190565b604080518083037fffffffffffffffffffffffffffffffffffffffffffffffffffffffffffffffe001815290829052805160209091012060e083901b7fffffffff000000000000000000000000000000000000000000000000000000001682526004820152602401600060405180830381600087803b15801561251d57600080fd5b505af1158015612531573d6000803e3d6000fd5b505050508073ffffffffffffffffffffffffffffffffffffffff1663a1c4f55a6040518163ffffffff1660e01b815260040160206040518083038186803b15801561257b57600080fd5b505afa15801561258f573d6000803e3d6000fd5b505050506040513d601f19601f820116820180604052508101906125b39190614ac6565b50600c80547fffffffffffffffffffffffff00000000000000000000000000000000000000001673ffffffffffffffffffffffffffffffffffffffff83169081179091556040517f383f8cb39dfa7c3fb901a460dd449ea924868f0a92ff03da64740fffa5f1de6290600090a250565b60035473ffffffffffffffffffffffffffffffffffffffff1633146126a4576040517f08c379a000000000000000000000000000000000000000000000000000000000815260206004820152600c60248201527f4e6f74206f70657261746f7200000000000000000000000000000000000000006044820152606401610d6e565b6126ac614270565b60016000828152600d602052604090205460ff1660038111156126f8577f4e487b7100000000000000000000000000000000000000000000000000000000600052602160045260246000fd5b1461275f576040517f08c379a000000000000000000000000000000000000000000000000000000000815260206004820152601060248201527f4c6f7474657279206e6f74206f70656e000000000000000000000000000000006044820152606401610d6e565b6000818152600d602052604090206002015442116127d9576040517f08c379a000000000000000000000000000000000000000000000000000000000815260206004820152601060248201527f4c6f7474657279206e6f74206f766572000000000000000000000000000000006044820152606401610d6e565b6006546000828152600d6020908152604091829020601901839055600c5482519182018590529181019290925273ffffffffffffffffffffffffffffffffffffffff169063b37217a490606001604080518083037fffffffffffffffffffffffffffffffffffffffffffffffffffffffffffffffe001815290829052805160209091012060e083901b7fffffffff000000000000000000000000000000000000000000000000000000001682526004820152602401600060405180830381600087803b1580156128a857600080fd5b505af11580156128bc573d6000803e3d6000fd5b5050506000828152600d602090815260409182902080547fffffffffffffffffffffffffffffffffffffffffffffffffffffffffffffff0016600217905560065491519182528392507f3728e75294796694d59d2ffced9c394279baf7b9ebd2702db43f5f04bac67929910160405180910390a261293a6001600055565b50565b60035473ffffffffffffffffffffffffffffffffffffffff1633146129be576040517f08c379a000000000000000000000000000000000000000000000000000000000815260206004820152600c60248201527f4e6f74206f70657261746f7200000000000000000000000000000000000000006044820152606401610d6e565b6129c6614270565b60026000838152600d602052604090205460ff166003811115612a12577f4e487b7100000000000000000000000000000000000000000000000000000000600052602160045260246000fd5b14612a79576040517f08c379a000000000000000000000000000000000000000000000000000000000815260206004820152601160248201527f4c6f7474657279206e6f7420636c6f73650000000000000000000000000000006044820152606401610d6e565b600c60009054906101000a900473ffffffffffffffffffffffffffffffffffffffff1673ffffffffffffffffffffffffffffffffffffffff1663fbe5d9176040518163ffffffff1660e01b815260040160206040518083038186803b158015612ae157600080fd5b505afa158015612af5573d6000803e3d6000fd5b505050506040513d601f19601f82011682018060405250810190612b19919061489c565b8214612b81576040517f08c379a000000000000000000000000000000000000000000000000000000000815260206004820152601160248201527f4e756d62657273206e6f7420647261776e0000000000000000000000000000006044820152606401610d6e565b600c54604080517fa1c4f55a000000000000000000000000000000000000000000000000000000008152905160009273ffffffffffffffffffffffffffffffffffffffff169163a1c4f55a916004808301926020929190829003018186803b158015612bec57600080fd5b505afa158015612c00573d6000803e3d6000fd5b505050506040513d601f19601f82011682018060405250810190612c249190614ac6565b6000848152600d60205260408120601b0154919250908190640100000000900460ff166001811115612c7f577f4e487b7100000000000000000000000000000000000000000000000000000000600052602160045260246000fd5b60011415612c9f57506000848152600d60205260409020601d0154612cb3565b506000848152600d60205260409020601a01545b6000858152600d60205260408120600b015461271090612cd39082614f60565b612cdd9084614f23565b612ce79190614dec565b90506000805b60068163ffffffff16101561304b576000612d09826005614f77565b90506000612d18826001614dc4565b612d2390600a614e45565b612d2d9089615025565b63ffffffff8084166000908152600f6020526040902054612d4f929116614dc4565b60008b815260106020908152604080832063ffffffff85168452909152902054909150612d7d908890614f60565b60008b8152600d6020526040902060120163ffffffff841660068110612dcc577f4e487b7100000000000000000000000000000000000000000000000000000000600052603260045260246000fd5b015560008a815260106020908152604080832063ffffffff85168452909152902054612df9908890614f60565b15612f6d5760008a8152600d6020526040902060050163ffffffff831660068110612e4d577f4e487b7100000000000000000000000000000000000000000000000000000000600052603260045260246000fd5b015415612f685760008a815260106020908152604080832063ffffffff8516845290915290205461271090612e83908990614f60565b60008c8152600d60205260409020879060050163ffffffff861660068110612ed4577f4e487b7100000000000000000000000000000000000000000000000000000000600052603260045260246000fd5b0154612ee09190614f23565b612eea9190614dec565b612ef49190614dec565b60008b8152600d60205260409020600c0163ffffffff841660068110612f43577f4e487b7100000000000000000000000000000000000000000000000000000000600052603260045260246000fd5b015560008a815260106020908152604080832063ffffffff8516845290915290205496505b613036565b60008a8152600d60205260408120600c0163ffffffff841660068110612fbc577f4e487b7100000000000000000000000000000000000000000000000000000000600052603260045260246000fd5b015560008a8152600d6020526040902061271090869060050163ffffffff851660068110613013577f4e487b7100000000000000000000000000000000000000000000000000000000600052603260045260246000fd5b015461301f9190614f23565b6130299190614dec565b6130339085614dac565b93505b5050808061304390615001565b915050612ced565b506000878152600d60205260409020601b8101805463ffffffff88167fffffffffffffffffffffffffffffffffffffffffffffffffffffffff0000000090911617905580547fffffffffffffffffffffffffffffffffffffffffffffffffffffffffffffff0016600317905585156130c357600a5560005b6000878152600d60205260409020601b0154640100000000900460ff166001811115613118577f4e487b7100000000000000000000000000000000000000000000000000000000600052602160045260246000fd5b60011415613188576000878152600d60205260409020601d015461313d908390614f60565b6131479082614dac565b6004546000898152600d60205260409020601c01549192506131839173ffffffffffffffffffffffffffffffffffffffff9081169116836140c1565b6131dc565b6000878152600d60205260409020601a01546131a5908390614f60565b6131af9082614dac565b600454600b549192506131dc9173ffffffffffffffffffffffffffffffffffffffff9081169116836140c1565b6005546040805163ffffffff88168152602081018790527f98e31a6607b8b15b4d5b91de54f4c09ffe4c4cf162aa532c70b5213754e2e703910160405180910390a2505050505061322d6001600055565b5050565b600061012c84101561329f576040517f08c379a000000000000000000000000000000000000000000000000000000000815260206004820152601f60248201527f4d757374206265203e3d204d494e5f444953434f554e545f44495649534f52006044820152606401610d6e565b81613306576040517f08c379a000000000000000000000000000000000000000000000000000000000815260206004820152601d60248201527f4e756d626572206f66207469636b657473206d757374206265203e20300000006044820152606401610d6e565b610cdb8484846142e4565b333b1561337a576040517f08c379a000000000000000000000000000000000000000000000000000000000815260206004820152601460248201527f436f6e7472616374206e6f7420616c6c6f7765640000000000000000000000006044820152606401610d6e565b3332146133e3576040517f08c379a000000000000000000000000000000000000000000000000000000000815260206004820152601a60248201527f50726f787920636f6e7472616374206e6f7420616c6c6f7765640000000000006044820152606401610d6e565b6133eb614270565b828114613454576040517f08c379a000000000000000000000000000000000000000000000000000000000815260206004820152600f60248201527f4e6f742073616d65206c656e67746800000000000000000000000000000000006044820152606401610d6e565b826134bb576040517f08c379a000000000000000000000000000000000000000000000000000000000815260206004820152601160248201527f4c656e677468206d757374206265203e300000000000000000000000000000006044820152606401610d6e565b600754831115613527576040517f08c379a000000000000000000000000000000000000000000000000000000000815260206004820152601060248201527f546f6f206d616e79207469636b657473000000000000000000000000000000006044820152606401610d6e565b60036000868152600d602052604090205460ff166003811115613573577f4e487b7100000000000000000000000000000000000000000000000000000000600052602160045260246000fd5b146135da576040517f08c379a000000000000000000000000000000000000000000000000000000000815260206004820152601560248201527f4c6f7474657279206e6f7420636c61696d61626c6500000000000000000000006044820152606401610d6e565b6000805b84811015613aac576006848483818110613621577f4e487b7100000000000000000000000000000000000000000000000000000000600052603260045260246000fd5b90506020020160208101906136369190614aaa565b63ffffffff16106136a3576040517f08c379a000000000000000000000000000000000000000000000000000000000815260206004820152601460248201527f427261636b6574206f7574206f662072616e67650000000000000000000000006044820152606401610d6e565b60008686838181106136de577f4e487b7100000000000000000000000000000000000000000000000000000000600052603260045260246000fd5b90506020020135905080600d60008a81526020019081526020016000206019015411613766576040517f08c379a000000000000000000000000000000000000000000000000000000000815260206004820152601160248201527f5469636b6574496420746f6f20686967680000000000000000000000000000006044820152606401610d6e565b6000888152600d60205260409020601801548110156137e1576040517f08c379a000000000000000000000000000000000000000000000000000000000815260206004820152601060248201527f5469636b6574496420746f6f206c6f77000000000000000000000000000000006044820152606401610d6e565b6000818152600e6020526040902054640100000000900473ffffffffffffffffffffffffffffffffffffffff163314613876576040517f08c379a000000000000000000000000000000000000000000000000000000000815260206004820152600d60248201527f4e6f7420746865206f776e6572000000000000000000000000000000000000006044820152606401610d6e565b6000818152600e6020526040812080547fffffffffffffffff0000000000000000000000000000000000000000ffffffff16905561390289838888878181106138e8577f4e487b7100000000000000000000000000000000000000000000000000000000600052603260045260246000fd5b90506020020160208101906138fd9190614aaa565b613f0e565b90508061396b576040517f08c379a000000000000000000000000000000000000000000000000000000000815260206004820152601960248201527f4e6f207072697a6520666f72207468697320627261636b6574000000000000006044820152606401610d6e565b8585848181106139a4577f4e487b7100000000000000000000000000000000000000000000000000000000600052603260045260246000fd5b90506020020160208101906139b99190614aaa565b63ffffffff16600514613a8b57613a248983888887818110613a04577f4e487b7100000000000000000000000000000000000000000000000000000000600052603260045260246000fd5b9050602002016020810190613a199190614aaa565b6138fd906001614dc4565b15613a8b576040517f08c379a000000000000000000000000000000000000000000000000000000000815260206004820152601660248201527f427261636b6574206d75737420626520686967686572000000000000000000006044820152606401610d6e565b613a958185614dac565b935050508080613aa490614fc8565b9150506135de565b506000868152600d60205260409020601b0154640100000000900460ff166001811115613b02577f4e487b7100000000000000000000000000000000000000000000000000000000600052602160045260246000fd5b60011415613b42576000868152600d60205260409020601c0154613b3d9073ffffffffffffffffffffffffffffffffffffffff1633836140c1565b613b66565b600b54613b669073ffffffffffffffffffffffffffffffffffffffff1633836140c1565b6040805182815260208101869052879133917f0f5fca62da8fb5d95525b49e5eaa7b20bc6bd9e2f6b64b493442d1c0bd6ef486910160405180910390a350613bae6001600055565b5050505050565b613bbd614040565b73ffffffffffffffffffffffffffffffffffffffff8316613c3a576040517f08c379a000000000000000000000000000000000000000000000000000000000815260206004820152601660248201527f43616e6e6f74206265207a65726f2061646472657373000000000000000000006044820152606401610d6e565b73ffffffffffffffffffffffffffffffffffffffff8216613cb7576040517f08c379a000000000000000000000000000000000000000000000000000000000815260206004820152601660248201527f43616e6e6f74206265207a65726f2061646472657373000000000000000000006044820152606401610d6e565b73ffffffffffffffffffffffffffffffffffffffff8116613d34576040517f08c379a000000000000000000000000000000000000000000000000000000000815260206004820152601660248201527f43616e6e6f74206265207a65726f2061646472657373000000000000000000006044820152606401610d6e565b6003805473ffffffffffffffffffffffffffffffffffffffff8581167fffffffffffffffffffffffff0000000000000000000000000000000000000000928316811790935560048054868316908416811790915560028054928616929093168217909255604080519384526020840192909252908201527f3e945b7660001d46cfd5e729545f7f0b6c65bdee54066a91c7acad703f1b731e9060600160405180910390a1505050565b613de5614040565b80821115613e4f576040517f08c379a000000000000000000000000000000000000000000000000000000000815260206004820152601b60248201527f6d696e5072696365206d757374206265203c206d6178507269636500000000006044820152606401610d6e565b600991909155600855565b613e62614040565b73ffffffffffffffffffffffffffffffffffffffff8116613f05576040517f08c379a000000000000000000000000000000000000000000000000000000000815260206004820152602660248201527f4f776e61626c653a206e6577206f776e657220697320746865207a65726f206160448201527f64647265737300000000000000000000000000000000000000000000000000006064820152608401610d6e565b61293a816141f9565b6000838152600d60209081526040808320601b0154858452600e90925282205463ffffffff918216911682613f44856001614dc4565b613f4f90600a614e45565b613f599084615025565b63ffffffff8087166000908152600f6020526040902054613f7b929116614dc4565b90506000613f8a866001614dc4565b613f9590600a614e45565b613f9f9084615025565b63ffffffff8088166000908152600f6020526040902054613fc1929116614dc4565b90508063ffffffff168263ffffffff161415614033576000888152600d60205260409020600c0163ffffffff871660068110614026577f4e487b7100000000000000000000000000000000000000000000000000000000600052603260045260246000fd5b0154945050505050610cde565b6000945050505050610cde565b60015473ffffffffffffffffffffffffffffffffffffffff16331461104b576040517f08c379a000000000000000000000000000000000000000000000000000000000815260206004820181905260248201527f4f776e61626c653a2063616c6c6572206973206e6f7420746865206f776e65726044820152606401610d6e565b60405173ffffffffffffffffffffffffffffffffffffffff83166024820152604481018290526120b99084907fa9059cbb00000000000000000000000000000000000000000000000000000000906064015b604080517fffffffffffffffffffffffffffffffffffffffffffffffffffffffffffffffe08184030181529190526020810180517bffffffffffffffffffffffffffffffffffffffffffffffffffffffff167fffffffff000000000000000000000000000000000000000000000000000000009093169290921790915261431b565b60405173ffffffffffffffffffffffffffffffffffffffff808516602483015283166044820152606481018290526141f39085907f23b872dd0000000000000000000000000000000000000000000000000000000090608401614113565b50505050565b6001805473ffffffffffffffffffffffffffffffffffffffff8381167fffffffffffffffffffffffff0000000000000000000000000000000000000000831681179093556040519116919082907f8be0079c531659141344cd1fd0a4f28419497f9722a3daafe3b4186f6b6457e090600090a35050565b600260005414156142dd576040517f08c379a000000000000000000000000000000000000000000000000000000000815260206004820152601f60248201527f5265656e7472616e637947756172643a207265656e7472616e742063616c6c006044820152606401610d6e565b6002600055565b600083826142f3826001614dac565b6142fd9190614f60565b6143078486614f23565b6143119190614f23565b610cdb9190614dec565b600061437d826040518060400160405280602081526020017f5361666545524332303a206c6f772d6c6576656c2063616c6c206661696c65648152508573ffffffffffffffffffffffffffffffffffffffff166144279092919063ffffffff16565b8051909150156120b9578080602001905181019061439b9190614868565b6120b9576040517f08c379a000000000000000000000000000000000000000000000000000000000815260206004820152602a60248201527f5361666545524332303a204552433230206f7065726174696f6e20646964206e60448201527f6f742073756363656564000000000000000000000000000000000000000000006064820152608401610d6e565b6060610cdb8484600085856000808673ffffffffffffffffffffffffffffffffffffffff16858760405161445b9190614b9a565b60006040518083038185875af1925050503d8060008114614498576040519150601f19603f3d011682016040523d82523d6000602084013e61449d565b606091505b50915091506144ae878383876144bb565b925050505b949350505050565b6060831561454e5782516145475773ffffffffffffffffffffffffffffffffffffffff85163b614547576040517f08c379a000000000000000000000000000000000000000000000000000000000815260206004820152601d60248201527f416464726573733a2063616c6c20746f206e6f6e2d636f6e74726163740000006044820152606401610d6e565b50816144b3565b6144b383838151156145635781518083602001fd5b806040517f08c379a0000000000000000000000000000000000000000000000000000000008152600401610d6e9190614c58565b604080516101e081019091528060008152602001600081526020016000815260200160008152602001600081526020016145cf6146cc565b8152602001600081526020016145e36146cc565b81526020016145f06146cc565b8152602001600081526020016000815260200160008152602001600063ffffffff16815260200160006001811115614651577f4e487b7100000000000000000000000000000000000000000000000000000000600052602160045260246000fd5b81526020016146896040518060400160405280600073ffffffffffffffffffffffffffffffffffffffff168152602001600081525090565b905290565b82600681019282156146bc579160200282015b828111156146bc5782518255916020019190600101906146a1565b506146c89291506146ea565b5090565b6040518060c001604052806006906020820280368337509192915050565b5b808211156146c857600081556001016146eb565b803573ffffffffffffffffffffffffffffffffffffffff8116811461472357600080fd5b919050565b60008083601f840112614739578182fd5b50813567ffffffffffffffff811115614750578182fd5b6020830191508360208260051b850101111561238f57600080fd5b60006020828403121561477c578081fd5b610cde826146ff565b600080600060608486031215614799578182fd5b6147a2846146ff565b92506147b0602085016146ff565b91506147be604085016146ff565b90509250925092565b600080604083850312156147d9578182fd5b6147e2836146ff565b946020939093013593505050565b60008060008060808587031215614805578081fd5b61480e856146ff565b966020860135965060408601359560600135945092505050565b6000806020838503121561483a578182fd5b823567ffffffffffffffff811115614850578283fd5b61485c85828601614728565b90969095509350505050565b600060208284031215614879578081fd5b8151610cde816150d5565b600060208284031215614895578081fd5b5035919050565b6000602082840312156148ad578081fd5b5051919050565b6000806000806000606086880312156148cb578081fd5b85359450602086013567ffffffffffffffff808211156148e9578283fd5b6148f589838a01614728565b9096509450604088013591508082111561490d578283fd5b5061491a88828901614728565b969995985093965092949392505050565b60008060006040848603121561493f578283fd5b83359250602084013567ffffffffffffffff81111561495c578283fd5b61496886828701614728565b9497909650939450505050565b60008060408385031215614987578182fd5b823591506020830135614999816150d5565b809150509250929050565b600080604083850312156149b6578182fd5b50508035926020909101359150565b6000806000606084860312156149d9578081fd5b505081359360208301359350604090920135919050565b6000806000806000806000806101a0898b031215614a0c578586fd5b88359750602089013596506040890135955061012089018a811115614a2f578384fd5b60608a01955035935061014089013560ff81168114614a4c578384fd5b9250614a5b6101608a016146ff565b915061018089013590509295985092959890939650565b600080600060608486031215614a86578081fd5b83359250602084013591506040840135614a9f816150e3565b809150509250925092565b600060208284031215614abb578081fd5b8135610cde816150e3565b600060208284031215614ad7578081fd5b8151610cde816150e3565b6000815180845260208085019450808401835b83811015614b13578151151587529582019590820190600101614af5565b509495945050505050565b8060005b60068110156141f3578151845260209384019390910190600101614b22565b6000815180845260208085019450808401835b83811015614b1357815163ffffffff1687529582019590820190600101614b54565b60028110614b8657614b866150a6565b9052565b60048110614b8657614b866150a6565b60008251614bac818460208701614f9c565b9190910192915050565b6080808252855190820181905260009060209060a0840190828901845b82811015614bef57815184529284019290840190600101614bd3565b50505083810382850152614c038188614b41565b9150508281036040840152614c188186614ae2565b91505082606083015295945050505050565b604081526000614c3d6040830185614b41565b8281036020840152614c4f8185614ae2565b95945050505050565b6020815260008251806020840152614c77816040850160208701614f9c565b601f017fffffffffffffffffffffffffffffffffffffffffffffffffffffffffffffffe0169190910160400192915050565b60006103e082019050614cbd828451614b8a565b6020830151602083015260408301516040830152606083015160608301526080830151608083015260a0830151614cf760a0840182614b1e565b5060c0830151610160818185015260e08501519150610180614d1b81860184614b1e565b6101008601519250614d31610240860184614b1e565b6101208601516103008601526101408601516103208601529085015161034085015284015163ffffffff16610360840152506101a0830151614d77610380840182614b76565b506101c09290920151805173ffffffffffffffffffffffffffffffffffffffff166103a0830152602001516103c09091015290565b60008219821115614dbf57614dbf615048565b500190565b600063ffffffff808316818516808303821115614de357614de3615048565b01949350505050565b600082614dfb57614dfb615077565b500490565b600181815b80851115614e3d578163ffffffff04821115614e2357614e23615048565b80851615614e3057918102915b93841c9390800290614e05565b509250929050565b600063ffffffff6144b3818516828516600082614e6457506001614f1d565b81614e7157506000614f1d565b8160018114614e875760028114614e9157614ec2565b6001915050614f1d565b60ff841115614ea257614ea2615048565b6001841b915063ffffffff821115614ebc57614ebc615048565b50614f1d565b5060208310610133831016604e8410600b8410161715614ef9575081810a63ffffffff811115614ef457614ef4615048565b614f1d565b614f038383614e00565b8063ffffffff04821115614f1957614f19615048565b0290505b92915050565b6000817fffffffffffffffffffffffffffffffffffffffffffffffffffffffffffffffff0483118215151615614f5b57614f5b615048565b500290565b600082821015614f7257614f72615048565b500390565b600063ffffffff83811690831681811015614f9457614f94615048565b039392505050565b60005b83811015614fb7578181015183820152602001614f9f565b838111156141f35750506000910152565b60007fffffffffffffffffffffffffffffffffffffffffffffffffffffffffffffffff821415614ffa57614ffa615048565b5060010190565b600063ffffffff8083168181141561501b5761501b615048565b6001019392505050565b600063ffffffff8084168061503c5761503c615077565b92169190910692915050565b7f4e487b7100000000000000000000000000000000000000000000000000000000600052601160045260246000fd5b7f4e487b7100000000000000000000000000000000000000000000000000000000600052601260045260246000fd5b7f4e487b7100000000000000000000000000000000000000000000000000000000600052602160045260246000fd5b801515811461293a57600080fd5b63ffffffff8116811461293a57600080fdfea264697066735822122094d90c25261fd72eb035032e24de36d03747357b072d6cbe3cfe124c11677b8964736f6c63430008040033",
  "linkReferences": {},
  "deployedLinkReferences": {}
}