{
  "_format": "hh-sol-artifact-1",
  "contractName": "RandomNumberGenerator",
  "sourceName": "contracts/RandomNumberGenerator.sol",
  "abi": [
    {
      "inputs": [
        {
          "internalType": "address",
          "name": "_vrfCoordinator",
          "type": "address"
        },
        {
          "internalType": "address",
          "name": "_linkToken",
          "type": "address"
        }
      ],
      "stateMutability": "nonpayable",
      "type": "constructor"
    },
    {
      "anonymous": false,
      "inputs": [
        {
          "indexed": true,
          "internalType": "address",
          "name": "previousOwner",
          "type": "address"
        },
        {
          "indexed": true,
          "internalType": "address",
          "name": "newOwner",
          "type": "address"
        }
      ],
      "name": "OwnershipTransferred",
      "type": "event"
    },
    {
      "inputs": [],
      "name": "fee",
      "outputs": [
        {
          "internalType": "uint256",
          "name": "",
          "type": "uint256"
        }
      ],
      "stateMutability": "view",
      "type": "function"
    },
    {
      "inputs": [
        {
          "internalType": "uint256",
          "name": "_seed",
          "type": "uint256"
        }
      ],
      "name": "getRandomNumber",
      "outputs": [],
      "stateMutability": "nonpayable",
      "type": "function"
    },
    {
      "inputs": [],
      "name": "keyHash",
      "outputs": [
        {
          "internalType": "bytes32",
          "name": "",
          "type": "bytes32"
        }
      ],
      "stateMutability": "view",
      "type": "function"
    },
    {
      "inputs": [],
      "name": "kyotoSwapLottery",
      "outputs": [
        {
          "internalType": "address",
          "name": "",
          "type": "address"
        }
      ],
      "stateMutability": "view",
      "type": "function"
    },
    {
      "inputs": [],
      "name": "latestLotteryId",
      "outputs": [
        {
          "internalType": "uint256",
          "name": "",
          "type": "uint256"
        }
      ],
      "stateMutability": "view",
      "type": "function"
    },
    {
      "inputs": [],
      "name": "latestRequestId",
      "outputs": [
        {
          "internalType": "bytes32",
          "name": "",
          "type": "bytes32"
        }
      ],
      "stateMutability": "view",
      "type": "function"
    },
    {
      "inputs": [],
      "name": "owner",
      "outputs": [
        {
          "internalType": "address",
          "name": "",
          "type": "address"
        }
      ],
      "stateMutability": "view",
      "type": "function"
    },
    {
      "inputs": [],
      "name": "randomResult",
      "outputs": [
        {
          "internalType": "uint32",
          "name": "",
          "type": "uint32"
        }
      ],
      "stateMutability": "view",
      "type": "function"
    },
    {
      "inputs": [
        {
          "internalType": "bytes32",
          "name": "requestId",
          "type": "bytes32"
        },
        {
          "internalType": "uint256",
          "name": "randomness",
          "type": "uint256"
        }
      ],
      "name": "rawFulfillRandomness",
      "outputs": [],
      "stateMutability": "nonpayable",
      "type": "function"
    },
    {
      "inputs": [],
      "name": "renounceOwnership",
      "outputs": [],
      "stateMutability": "nonpayable",
      "type": "function"
    },
    {
      "inputs": [
        {
          "internalType": "uint256",
          "name": "_fee",
          "type": "uint256"
        }
      ],
      "name": "setFee",
      "outputs": [],
      "stateMutability": "nonpayable",
      "type": "function"
    },
    {
      "inputs": [
        {
          "internalType": "bytes32",
          "name": "_keyHash",
          "type": "bytes32"
        }
      ],
      "name": "setKeyHash",
      "outputs": [],
      "stateMutability": "nonpayable",
      "type": "function"
    },
    {
      "inputs": [
        {
          "internalType": "address",
          "name": "_kyotoSwapLottery",
          "type": "address"
        }
      ],
      "name": "setLotteryAddress",
      "outputs": [],
      "stateMutability": "nonpayable",
      "type": "function"
    },
    {
      "inputs": [
        {
          "internalType": "address",
          "name": "newOwner",
          "type": "address"
        }
      ],
      "name": "transferOwnership",
      "outputs": [],
      "stateMutability": "nonpayable",
      "type": "function"
    },
    {
      "inputs": [],
      "name": "viewLatestLotteryId",
      "outputs": [
        {
          "internalType": "uint256",
          "name": "",
          "type": "uint256"
        }
      ],
      "stateMutability": "view",
      "type": "function"
    },
    {
      "inputs": [],
      "name": "viewRandomResult",
      "outputs": [
        {
          "internalType": "uint32",
          "name": "",
          "type": "uint32"
        }
      ],
      "stateMutability": "view",
      "type": "function"
    },
    {
      "inputs": [
        {
          "internalType": "address",
          "name": "_tokenAddress",
          "type": "address"
        },
        {
          "internalType": "uint256",
          "name": "_tokenAmount",
          "type": "uint256"
        }
      ],
      "name": "withdrawTokens",
      "outputs": [],
      "stateMutability": "nonpayable",
      "type": "function"
    }
  ],
  "bytecode": "0x60c060405234801561001057600080fd5b5060405161119b38038061119b83398101604081905261002f916100cd565b6001600160601b0319606083811b821660a05282901b166080526100586100533390565b61005f565b50506100ff565b600180546001600160a01b038381166001600160a01b0319831681179093556040519116919082907f8be0079c531659141344cd1fd0a4f28419497f9722a3daafe3b4186f6b6457e090600090a35050565b80516001600160a01b03811681146100c857600080fd5b919050565b600080604083850312156100df578182fd5b6100e8836100b1565b91506100f6602084016100b1565b90509250929050565b60805160601c60a05160601c6110636101386000396000818161033901526109ea0152600081816104f701526109ae01526110636000f3fe608060405234801561001057600080fd5b506004361061011b5760003560e01c80638da5cb5b116100b2578063b37217a411610081578063eed8e1ee11610066578063eed8e1ee14610260578063f2fde38b14610269578063fbe5d9171461027c57600080fd5b8063b37217a414610244578063ddca3f431461025757600080fd5b80638da5cb5b146101f257806394985ddd146102105780639854471014610223578063a1c4f55a1461023657600080fd5b806342619f66116100ee57806342619f66146101a957806361728f39146101ce57806369fe0e2d146101d7578063715018a6146101ea57600080fd5b806302702ee81461012057806306b091f91461016a5780631aa46f591461017f5780632a332b2a14610196575b600080fd5b6002546101409073ffffffffffffffffffffffffffffffffffffffff1681565b60405173ffffffffffffffffffffffffffffffffffffffff90911681526020015b60405180910390f35b61017d610178366004610e3f565b610284565b005b61018860045481565b604051908152602001610161565b61017d6101a4366004610e1e565b6102b1565b6005546101b99063ffffffff1681565b60405163ffffffff9091168152602001610161565b61018860035481565b61017d6101e5366004610e88565b610300565b61017d61030d565b60015473ffffffffffffffffffffffffffffffffffffffff16610140565b61017d61021e366004610ea0565b610321565b61017d610231366004610e88565b6103cf565b60055463ffffffff166101b9565b61017d610252366004610e88565b6103dc565b61018860065481565b61018860075481565b61017d610277366004610e1e565b610603565b600754610188565b61028c6106ba565b6102ad73ffffffffffffffffffffffffffffffffffffffff8316338361073b565b5050565b6102b96106ba565b600280547fffffffffffffffffffffffff00000000000000000000000000000000000000001673ffffffffffffffffffffffffffffffffffffffff92909216919091179055565b6103086106ba565b600655565b6103156106ba565b61031f60006107cd565b565b3373ffffffffffffffffffffffffffffffffffffffff7f000000000000000000000000000000000000000000000000000000000000000016146103c5576040517f08c379a000000000000000000000000000000000000000000000000000000000815260206004820152601f60248201527f4f6e6c7920565246436f6f7264696e61746f722063616e2066756c66696c6c0060448201526064015b60405180910390fd5b6102ad8282610844565b6103d76106ba565b600355565b60025473ffffffffffffffffffffffffffffffffffffffff16331461045d576040517f08c379a000000000000000000000000000000000000000000000000000000000815260206004820152601760248201527f4f6e6c792050616e63616b65537761704c6f747465727900000000000000000060448201526064016103bc565b6003546104c6576040517f08c379a000000000000000000000000000000000000000000000000000000000815260206004820152601860248201527f4d75737420686176652076616c6964206b65792068617368000000000000000060448201526064016103bc565b6006546040517f70a082310000000000000000000000000000000000000000000000000000000081523060048201527f000000000000000000000000000000000000000000000000000000000000000073ffffffffffffffffffffffffffffffffffffffff16906370a082319060240160206040518083038186803b15801561054e57600080fd5b505afa158015610562573d6000803e3d6000fd5b505050506040513d601f19601f820116820180604052508101906105869190610ec1565b10156105ee576040517f08c379a000000000000000000000000000000000000000000000000000000000815260206004820152601660248201527f4e6f7420656e6f756768204c494e4b20746f6b656e730000000000000000000060448201526064016103bc565b6105fd600354600654836109aa565b60045550565b61060b6106ba565b73ffffffffffffffffffffffffffffffffffffffff81166106ae576040517f08c379a000000000000000000000000000000000000000000000000000000000815260206004820152602660248201527f4f776e61626c653a206e6577206f776e657220697320746865207a65726f206160448201527f646472657373000000000000000000000000000000000000000000000000000060648201526084016103bc565b6106b7816107cd565b50565b60015473ffffffffffffffffffffffffffffffffffffffff16331461031f576040517f08c379a000000000000000000000000000000000000000000000000000000000815260206004820181905260248201527f4f776e61626c653a2063616c6c6572206973206e6f7420746865206f776e657260448201526064016103bc565b6040805173ffffffffffffffffffffffffffffffffffffffff8416602482015260448082018490528251808303909101815260649091019091526020810180517bffffffffffffffffffffffffffffffffffffffffffffffffffffffff167fa9059cbb000000000000000000000000000000000000000000000000000000001790526107c8908490610b25565b505050565b6001805473ffffffffffffffffffffffffffffffffffffffff8381167fffffffffffffffffffffffff0000000000000000000000000000000000000000831681179093556040519116919082907f8be0079c531659141344cd1fd0a4f28419497f9722a3daafe3b4186f6b6457e090600090a35050565b81600454146108af576040517f08c379a000000000000000000000000000000000000000000000000000000000815260206004820152600f60248201527f57726f6e6720726571756573744964000000000000000000000000000000000060448201526064016103bc565b6108bc620f424082610ff4565b6108c990620f4240610f87565b600580547fffffffffffffffffffffffffffffffffffffffffffffffffffffffff000000001663ffffffff92909216919091179055600254604080517f80a06160000000000000000000000000000000000000000000000000000000008152905173ffffffffffffffffffffffffffffffffffffffff909216916380a06160916004808201926020929091908290030181600087803b15801561096b57600080fd5b505af115801561097f573d6000803e3d6000fd5b505050506040513d601f19601f820116820180604052508101906109a39190610ec1565b6007555050565b60007f000000000000000000000000000000000000000000000000000000000000000073ffffffffffffffffffffffffffffffffffffffff16634000aea07f0000000000000000000000000000000000000000000000000000000000000000858786604051602001610a26929190918252602082015260400190565b6040516020818303038152906040526040518463ffffffff1660e01b8152600401610a5393929190610f3f565b602060405180830381600087803b158015610a6d57600080fd5b505af1158015610a81573d6000803e3d6000fd5b505050506040513d601f19601f82011682018060405250810190610aa59190610e68565b506000610ac68584306000808a815260200190815260200160002054610c31565b600086815260208190526040902054909150610ae3906001610f87565b60008681526020818152604091829020929092558051808301889052808201849052815180820383018152606090910190915280519101205b95945050505050565b6000610b87826040518060400160405280602081526020017f5361666545524332303a206c6f772d6c6576656c2063616c6c206661696c65648152508573ffffffffffffffffffffffffffffffffffffffff16610c879092919063ffffffff16565b8051909150156107c85780806020019051810190610ba59190610e68565b6107c8576040517f08c379a000000000000000000000000000000000000000000000000000000000815260206004820152602a60248201527f5361666545524332303a204552433230206f7065726174696f6e20646964206e60448201527f6f7420737563636565640000000000000000000000000000000000000000000060648201526084016103bc565b60408051602080820187905281830186905273ffffffffffffffffffffffffffffffffffffffff8516606083015260808083018590528351808403909101815260a090920190925280519101205b949350505050565b6060610c7f8484600085856000808673ffffffffffffffffffffffffffffffffffffffff168587604051610cbb9190610f23565b60006040518083038185875af1925050503d8060008114610cf8576040519150601f19603f3d011682016040523d82523d6000602084013e610cfd565b606091505b5091509150610d0e87838387610d19565b979650505050505050565b60608315610dac578251610da55773ffffffffffffffffffffffffffffffffffffffff85163b610da5576040517f08c379a000000000000000000000000000000000000000000000000000000000815260206004820152601d60248201527f416464726573733a2063616c6c20746f206e6f6e2d636f6e747261637400000060448201526064016103bc565b5081610c7f565b610c7f8383815115610dc15781518083602001fd5b806040517f08c379a00000000000000000000000000000000000000000000000000000000081526004016103bc9190610f74565b803573ffffffffffffffffffffffffffffffffffffffff81168114610e1957600080fd5b919050565b600060208284031215610e2f578081fd5b610e3882610df5565b9392505050565b60008060408385031215610e51578081fd5b610e5a83610df5565b946020939093013593505050565b600060208284031215610e79578081fd5b81518015158114610e38578182fd5b600060208284031215610e99578081fd5b5035919050565b60008060408385031215610eb2578182fd5b50508035926020909101359150565b600060208284031215610ed2578081fd5b5051919050565b60008151808452610ef1816020860160208601610fc4565b601f017fffffffffffffffffffffffffffffffffffffffffffffffffffffffffffffffe0169290920160200192915050565b60008251610f35818460208701610fc4565b9190910192915050565b73ffffffffffffffffffffffffffffffffffffffff84168152826020820152606060408201526000610b1c6060830184610ed9565b602081526000610e386020830184610ed9565b60008219821115610fbf577f4e487b710000000000000000000000000000000000000000000000000000000081526011600452602481fd5b500190565b60005b83811015610fdf578181015183820152602001610fc7565b83811115610fee576000848401525b50505050565b600082611028577f4e487b710000000000000000000000000000000000000000000000000000000081526012600452602481fd5b50069056fea2646970667358221220d53481d309a4569798577add719e70b1830a8e59e41b0f4bc6b7b5e1a4826f8f64736f6c63430008040033",
  "linkReferences": {},
  "deployedLinkReferences": {}
}