{
  "_format": "hh-sol-artifact-1",
  "contractName": "MockRandomNumberGenerator",
  "sourceName": "contracts/utils/MockRandomNumberGenerator.sol",
  "abi": [
    {
      "inputs": [],
      "stateMutability": "nonpayable",
      "type": "constructor"
    },
    {
      "anonymous": false,
      "inputs": [
        {
          "indexed": true,
          "internalType": "address",
          "name": "previousOwner",
          "type": "address"
        },
        {
          "indexed": true,
          "internalType": "address",
          "name": "newOwner",
          "type": "address"
        }
      ],
      "name": "OwnershipTransferred",
      "type": "event"
    },
    {
      "inputs": [],
      "name": "changeLatestLotteryId",
      "outputs": [],
      "stateMutability": "nonpayable",
      "type": "function"
    },
    {
      "inputs": [
        {
          "internalType": "uint256",
          "name": "_seed",
          "type": "uint256"
        }
      ],
      "name": "getRandomNumber",
      "outputs": [],
      "stateMutability": "nonpayable",
      "type": "function"
    },
    {
      "inputs": [],
      "name": "kyotoSwapLottery",
      "outputs": [
        {
          "internalType": "address",
          "name": "",
          "type": "address"
        }
      ],
      "stateMutability": "view",
      "type": "function"
    },
    {
      "inputs": [],
      "name": "latestLotteryId",
      "outputs": [
        {
          "internalType": "uint256",
          "name": "",
          "type": "uint256"
        }
      ],
      "stateMutability": "view",
      "type": "function"
    },
    {
      "inputs": [],
      "name": "nextRandomResult",
      "outputs": [
        {
          "internalType": "uint256",
          "name": "",
          "type": "uint256"
        }
      ],
      "stateMutability": "view",
      "type": "function"
    },
    {
      "inputs": [],
      "name": "owner",
      "outputs": [
        {
          "internalType": "address",
          "name": "",
          "type": "address"
        }
      ],
      "stateMutability": "view",
      "type": "function"
    },
    {
      "inputs": [],
      "name": "randomResult",
      "outputs": [
        {
          "internalType": "uint32",
          "name": "",
          "type": "uint32"
        }
      ],
      "stateMutability": "view",
      "type": "function"
    },
    {
      "inputs": [],
      "name": "renounceOwnership",
      "outputs": [],
      "stateMutability": "nonpayable",
      "type": "function"
    },
    {
      "inputs": [
        {
          "internalType": "address",
          "name": "_kyotoSwapLottery",
          "type": "address"
        }
      ],
      "name": "setLotteryAddress",
      "outputs": [],
      "stateMutability": "nonpayable",
      "type": "function"
    },
    {
      "inputs": [
        {
          "internalType": "uint256",
          "name": "_nextRandomResult",
          "type": "uint256"
        }
      ],
      "name": "setNextRandomResult",
      "outputs": [],
      "stateMutability": "nonpayable",
      "type": "function"
    },
    {
      "inputs": [
        {
          "internalType": "address",
          "name": "newOwner",
          "type": "address"
        }
      ],
      "name": "transferOwnership",
      "outputs": [],
      "stateMutability": "nonpayable",
      "type": "function"
    },
    {
      "inputs": [],
      "name": "viewLatestLotteryId",
      "outputs": [
        {
          "internalType": "uint256",
          "name": "",
          "type": "uint256"
        }
      ],
      "stateMutability": "view",
      "type": "function"
    },
    {
      "inputs": [],
      "name": "viewRandomResult",
      "outputs": [
        {
          "internalType": "uint32",
          "name": "",
          "type": "uint32"
        }
      ],
      "stateMutability": "view",
      "type": "function"
    }
  ],
  "bytecode": "0x608060405234801561001057600080fd5b5061001a3361001f565b61006f565b600080546001600160a01b038381166001600160a01b0319831681178455604051919092169283917f8be0079c531659141344cd1fd0a4f28419497f9722a3daafe3b4186f6b6457e09190a35050565b6106e28061007e6000396000f3fe608060405234801561001057600080fd5b50600436106100de5760003560e01c806380df99361161008c578063b37217a411610066578063b37217a4146101fd578063eed8e1ee14610210578063f2fde38b14610219578063fbe5d9171461022c57600080fd5b806380df9936146101a65780638da5cb5b146101b9578063a1c4f55a146101d757600080fd5b806342619f66116100bd57806342619f66146101595780634610852b14610196578063715018a61461019e57600080fd5b806204fd88146100e357806302702ee8146100ff5780632a332b2a14610144575b600080fd5b6100ec60025481565b6040519081526020015b60405180910390f35b60015461011f9073ffffffffffffffffffffffffffffffffffffffff1681565b60405173ffffffffffffffffffffffffffffffffffffffff90911681526020016100f6565b6101576101523660046105cb565b610234565b005b6001546101819074010000000000000000000000000000000000000000900463ffffffff1681565b60405163ffffffff90911681526020016100f6565b610157610283565b61015761032a565b6101576101b4366004610606565b61033e565b60005473ffffffffffffffffffffffffffffffffffffffff1661011f565b60015474010000000000000000000000000000000000000000900463ffffffff16610181565b61015761020b366004610606565b61034b565b6100ec60035481565b6101576102273660046105cb565b6103e3565b6003546100ec565b61023c610497565b600180547fffffffffffffffffffffffff00000000000000000000000000000000000000001673ffffffffffffffffffffffffffffffffffffffff92909216919091179055565b600160009054906101000a900473ffffffffffffffffffffffffffffffffffffffff1673ffffffffffffffffffffffffffffffffffffffff166380a061606040518163ffffffff1660e01b8152600401602060405180830381600087803b1580156102ed57600080fd5b505af1158015610301573d6000803e3d6000fd5b505050506040513d601f19601f82011682018060405250810190610325919061061e565b600355565b610332610497565b61033c6000610518565b565b610346610497565b600255565b60015473ffffffffffffffffffffffffffffffffffffffff1633146103d1576040517f08c379a000000000000000000000000000000000000000000000000000000000815260206004820152601760248201527f4f6e6c792050616e63616b65537761704c6f747465727900000000000000000060448201526064015b60405180910390fd5b6103e06000801b60025461058d565b50565b6103eb610497565b73ffffffffffffffffffffffffffffffffffffffff811661048e576040517f08c379a000000000000000000000000000000000000000000000000000000000815260206004820152602660248201527f4f776e61626c653a206e6577206f776e657220697320746865207a65726f206160448201527f646472657373000000000000000000000000000000000000000000000000000060648201526084016103c8565b6103e081610518565b60005473ffffffffffffffffffffffffffffffffffffffff16331461033c576040517f08c379a000000000000000000000000000000000000000000000000000000000815260206004820181905260248201527f4f776e61626c653a2063616c6c6572206973206e6f7420746865206f776e657260448201526064016103c8565b6000805473ffffffffffffffffffffffffffffffffffffffff8381167fffffffffffffffffffffffff0000000000000000000000000000000000000000831681178455604051919092169283917f8be0079c531659141344cd1fd0a4f28419497f9722a3daafe3b4186f6b6457e09190a35050565b61059a620f424082610673565b6105a790620f4240610636565b600160146101000a81548163ffffffff021916908363ffffffff1602179055505050565b6000602082840312156105dc578081fd5b813573ffffffffffffffffffffffffffffffffffffffff811681146105ff578182fd5b9392505050565b600060208284031215610617578081fd5b5035919050565b60006020828403121561062f578081fd5b5051919050565b6000821982111561066e577f4e487b710000000000000000000000000000000000000000000000000000000081526011600452602481fd5b500190565b6000826106a7577f4e487b710000000000000000000000000000000000000000000000000000000081526012600452602481fd5b50069056fea2646970667358221220814eb01b40f2d9b5a3991ac515e55b668bc36bf6c8971acbd87c8e276bb3c63664736f6c63430008040033",
  "linkReferences": {},
  "deployedLinkReferences": {}
}